{
  "contractName": "ERC721Token",
  "abi": [
    {
      "constant": true,
      "inputs": [
        {
          "name": "_tokenId",
          "type": "uint256"
        }
      ],
      "name": "getApproved",
      "outputs": [
        {
          "name": "",
          "type": "address"
        }
      ],
      "payable": false,
      "stateMutability": "view",
      "type": "function"
    },
    {
      "constant": false,
      "inputs": [
        {
          "name": "_to",
          "type": "address"
        },
        {
          "name": "_tokenId",
          "type": "uint256"
        }
      ],
      "name": "approve",
      "outputs": [],
      "payable": false,
      "stateMutability": "nonpayable",
      "type": "function"
    },
    {
      "constant": false,
      "inputs": [
        {
          "name": "_from",
          "type": "address"
        },
        {
          "name": "_to",
          "type": "address"
        },
        {
          "name": "_tokenId",
          "type": "uint256"
        }
      ],
      "name": "transferFrom",
      "outputs": [],
      "payable": false,
      "stateMutability": "nonpayable",
      "type": "function"
    },
    {
      "constant": false,
      "inputs": [
        {
          "name": "_from",
          "type": "address"
        },
        {
          "name": "_to",
          "type": "address"
        },
        {
          "name": "_tokenId",
          "type": "uint256"
        }
      ],
      "name": "safeTransferFrom",
      "outputs": [],
      "payable": false,
      "stateMutability": "nonpayable",
      "type": "function"
    },
    {
      "constant": true,
      "inputs": [
        {
          "name": "_tokenId",
          "type": "uint256"
        }
      ],
      "name": "exists",
      "outputs": [
        {
          "name": "",
          "type": "bool"
        }
      ],
      "payable": false,
      "stateMutability": "view",
      "type": "function"
    },
    {
      "constant": true,
      "inputs": [
        {
          "name": "_tokenId",
          "type": "uint256"
        }
      ],
      "name": "ownerOf",
      "outputs": [
        {
          "name": "",
          "type": "address"
        }
      ],
      "payable": false,
      "stateMutability": "view",
      "type": "function"
    },
    {
      "constant": true,
      "inputs": [
        {
          "name": "_owner",
          "type": "address"
        }
      ],
      "name": "balanceOf",
      "outputs": [
        {
          "name": "",
          "type": "uint256"
        }
      ],
      "payable": false,
      "stateMutability": "view",
      "type": "function"
    },
    {
      "constant": false,
      "inputs": [
        {
          "name": "_to",
          "type": "address"
        },
        {
          "name": "_approved",
          "type": "bool"
        }
      ],
      "name": "setApprovalForAll",
      "outputs": [],
      "payable": false,
      "stateMutability": "nonpayable",
      "type": "function"
    },
    {
      "constant": false,
      "inputs": [
        {
          "name": "_from",
          "type": "address"
        },
        {
          "name": "_to",
          "type": "address"
        },
        {
          "name": "_tokenId",
          "type": "uint256"
        },
        {
          "name": "_data",
          "type": "bytes"
        }
      ],
      "name": "safeTransferFrom",
      "outputs": [],
      "payable": false,
      "stateMutability": "nonpayable",
      "type": "function"
    },
    {
      "constant": true,
      "inputs": [
        {
          "name": "_owner",
          "type": "address"
        },
        {
          "name": "_operator",
          "type": "address"
        }
      ],
      "name": "isApprovedForAll",
      "outputs": [
        {
          "name": "",
          "type": "bool"
        }
      ],
      "payable": false,
      "stateMutability": "view",
      "type": "function"
    },
    {
      "inputs": [
        {
          "name": "_name",
          "type": "string"
        },
        {
          "name": "_symbol",
          "type": "string"
        }
      ],
      "payable": false,
      "stateMutability": "nonpayable",
      "type": "constructor"
    },
    {
      "anonymous": false,
      "inputs": [
        {
          "indexed": true,
          "name": "_from",
          "type": "address"
        },
        {
          "indexed": true,
          "name": "_to",
          "type": "address"
        },
        {
          "indexed": false,
          "name": "_tokenId",
          "type": "uint256"
        }
      ],
      "name": "Transfer",
      "type": "event"
    },
    {
      "anonymous": false,
      "inputs": [
        {
          "indexed": true,
          "name": "_owner",
          "type": "address"
        },
        {
          "indexed": true,
          "name": "_approved",
          "type": "address"
        },
        {
          "indexed": false,
          "name": "_tokenId",
          "type": "uint256"
        }
      ],
      "name": "Approval",
      "type": "event"
    },
    {
      "anonymous": false,
      "inputs": [
        {
          "indexed": true,
          "name": "_owner",
          "type": "address"
        },
        {
          "indexed": true,
          "name": "_operator",
          "type": "address"
        },
        {
          "indexed": false,
          "name": "_approved",
          "type": "bool"
        }
      ],
      "name": "ApprovalForAll",
      "type": "event"
    },
    {
      "constant": true,
      "inputs": [],
      "name": "name",
      "outputs": [
        {
          "name": "",
          "type": "string"
        }
      ],
      "payable": false,
      "stateMutability": "view",
      "type": "function"
    },
    {
      "constant": true,
      "inputs": [],
      "name": "symbol",
      "outputs": [
        {
          "name": "",
          "type": "string"
        }
      ],
      "payable": false,
      "stateMutability": "view",
      "type": "function"
    },
    {
      "constant": true,
      "inputs": [
        {
          "name": "_tokenId",
          "type": "uint256"
        }
      ],
      "name": "tokenURI",
      "outputs": [
        {
          "name": "",
          "type": "string"
        }
      ],
      "payable": false,
      "stateMutability": "view",
      "type": "function"
    },
    {
      "constant": true,
      "inputs": [
        {
          "name": "_owner",
          "type": "address"
        },
        {
          "name": "_index",
          "type": "uint256"
        }
      ],
      "name": "tokenOfOwnerByIndex",
      "outputs": [
        {
          "name": "",
          "type": "uint256"
        }
      ],
      "payable": false,
      "stateMutability": "view",
      "type": "function"
    },
    {
      "constant": true,
      "inputs": [],
      "name": "totalSupply",
      "outputs": [
        {
          "name": "",
          "type": "uint256"
        }
      ],
      "payable": false,
      "stateMutability": "view",
      "type": "function"
    },
    {
      "constant": true,
      "inputs": [
        {
          "name": "_index",
          "type": "uint256"
        }
      ],
      "name": "tokenByIndex",
      "outputs": [
        {
          "name": "",
          "type": "uint256"
        }
      ],
      "payable": false,
      "stateMutability": "view",
      "type": "function"
    }
  ],
  "bytecode": "0x60806040523480156200001157600080fd5b5060405162001c9538038062001c9583398101806040528101908080518201929190602001805182019291905050508160049080519060200190620000589291906200007a565b508060059080519060200190620000719291906200007a565b50505062000129565b828054600181600116156101000203166002900490600052602060002090601f016020900481019282601f10620000bd57805160ff1916838001178555620000ee565b82800160010185558215620000ee579182015b82811115620000ed578251825591602001919060010190620000d0565b5b509050620000fd919062000101565b5090565b6200012691905b808211156200012257600081600090555060010162000108565b5090565b90565b611b5c80620001396000396000f3006080604052600436106100e6576000357c0100000000000000000000000000000000000000000000000000000000900463ffffffff16806306fdde03146100eb578063081812fc1461017b578063095ea7b3146101e857806318160ddd1461023557806323b872dd146102605780632f745c59146102cd57806342842e0e1461032e5780634f558e791461039b5780634f6ccce7146103e05780636352211e1461042157806370a082311461048e57806395d89b41146104e5578063a22cb46514610575578063b88d4fde146105c4578063c87b56dd14610677578063e985e9c51461071d575b600080fd5b3480156100f757600080fd5b50610100610798565b6040518080602001828103825283818151815260200191508051906020019080838360005b83811015610140578082015181840152602081019050610125565b50505050905090810190601f16801561016d5780820380516001836020036101000a031916815260200191505b509250505060405180910390f35b34801561018757600080fd5b506101a66004803603810190808035906020019092919050505061083a565b604051808273ffffffffffffffffffffffffffffffffffffffff1673ffffffffffffffffffffffffffffffffffffffff16815260200191505060405180910390f35b3480156101f457600080fd5b50610233600480360381019080803573ffffffffffffffffffffffffffffffffffffffff16906020019092919080359060200190929190505050610877565b005b34801561024157600080fd5b5061024a610a3d565b6040518082815260200191505060405180910390f35b34801561026c57600080fd5b506102cb600480360381019080803573ffffffffffffffffffffffffffffffffffffffff169060200190929190803573ffffffffffffffffffffffffffffffffffffffff16906020019092919080359060200190929190505050610a4a565b005b3480156102d957600080fd5b50610318600480360381019080803573ffffffffffffffffffffffffffffffffffffffff16906020019092919080359060200190929190505050610b61565b6040518082815260200191505060405180910390f35b34801561033a57600080fd5b50610399600480360381019080803573ffffffffffffffffffffffffffffffffffffffff169060200190929190803573ffffffffffffffffffffffffffffffffffffffff16906020019092919080359060200190929190505050610bd8565b005b3480156103a757600080fd5b506103c660048036038101908080359060200190929190505050610c10565b604051808215151515815260200191505060405180910390f35b3480156103ec57600080fd5b5061040b60048036038101908080359060200190929190505050610c81565b6040518082815260200191505060405180910390f35b34801561042d57600080fd5b5061044c60048036038101908080359060200190929190505050610cb9565b604051808273ffffffffffffffffffffffffffffffffffffffff1673ffffffffffffffffffffffffffffffffffffffff16815260200191505060405180910390f35b34801561049a57600080fd5b506104cf600480360381019080803573ffffffffffffffffffffffffffffffffffffffff169060200190929190505050610d36565b6040518082815260200191505060405180910390f35b3480156104f157600080fd5b506104fa610dba565b6040518080602001828103825283818151815260200191508051906020019080838360005b8381101561053a57808201518184015260208101905061051f565b50505050905090810190601f1680156105675780820380516001836020036101000a031916815260200191505b509250505060405180910390f35b34801561058157600080fd5b506105c2600480360381019080803573ffffffffffffffffffffffffffffffffffffffff169060200190929190803515159060200190929190505050610e5c565b005b3480156105d057600080fd5b50610675600480360381019080803573ffffffffffffffffffffffffffffffffffffffff169060200190929190803573ffffffffffffffffffffffffffffffffffffffff16906020019092919080359060200190929190803590602001908201803590602001908080601f0160208091040260200160405190810160405280939291908181526020018383808284378201915050505050509192919290505050610f98565b005b34801561068357600080fd5b506106a260048036038101908080359060200190929190505050610fd7565b6040518080602001828103825283818151815260200191508051906020019080838360005b838110156106e25780820151818401526020810190506106c7565b50505050905090810190601f16801561070f5780820380516001836020036101000a031916815260200191505b509250505060405180910390f35b34801561072957600080fd5b5061077e600480360381019080803573ffffffffffffffffffffffffffffffffffffffff169060200190929190803573ffffffffffffffffffffffffffffffffffffffff1690602001909291905050506110a0565b604051808215151515815260200191505060405180910390f35b606060048054600181600116156101000203166002900480601f0160208091040260200160405190810160405280929190818152602001828054600181600116156101000203166002900480156108305780601f1061080557610100808354040283529160200191610830565b820191906000526020600020905b81548152906001019060200180831161081357829003601f168201915b5050505050905090565b60006001600083815260200190815260200160002060009054906101000a900473ffffffffffffffffffffffffffffffffffffffff169050919050565b600061088282610cb9565b90508073ffffffffffffffffffffffffffffffffffffffff168373ffffffffffffffffffffffffffffffffffffffff16141515156108bf57600080fd5b8073ffffffffffffffffffffffffffffffffffffffff163373ffffffffffffffffffffffffffffffffffffffff1614806108ff57506108fe81336110a0565b5b151561090a57600080fd5b600073ffffffffffffffffffffffffffffffffffffffff1661092b8361083a565b73ffffffffffffffffffffffffffffffffffffffff1614158061097b5750600073ffffffffffffffffffffffffffffffffffffffff168373ffffffffffffffffffffffffffffffffffffffff1614155b15610a3857826001600084815260200190815260200160002060006101000a81548173ffffffffffffffffffffffffffffffffffffffff021916908373ffffffffffffffffffffffffffffffffffffffff1602179055508273ffffffffffffffffffffffffffffffffffffffff168173ffffffffffffffffffffffffffffffffffffffff167f8c5be1e5ebec7d5bd14f71427d1e84f3dd0314c0f7b2291e5b200ac8c7c3b925846040518082815260200191505060405180910390a35b505050565b6000600880549050905090565b80610a553382611134565b1515610a6057600080fd5b600073ffffffffffffffffffffffffffffffffffffffff168473ffffffffffffffffffffffffffffffffffffffff1614151515610a9c57600080fd5b600073ffffffffffffffffffffffffffffffffffffffff168373ffffffffffffffffffffffffffffffffffffffff1614151515610ad857600080fd5b610ae284836111c9565b610aec8483611332565b610af6838361154a565b8273ffffffffffffffffffffffffffffffffffffffff168473ffffffffffffffffffffffffffffffffffffffff167fddf252ad1be2c89b69c2b068fc378daa952ba7f163c4a11628f55a4df523b3ef846040518082815260200191505060405180910390a350505050565b6000610b6c83610d36565b82101515610b7957600080fd5b600660008473ffffffffffffffffffffffffffffffffffffffff1673ffffffffffffffffffffffffffffffffffffffff16815260200190815260200160002082815481101515610bc557fe5b9060005260206000200154905092915050565b80610be33382611134565b1515610bee57600080fd5b610c0a8484846020604051908101604052806000815250610f98565b50505050565b60008060008084815260200190815260200160002060009054906101000a900473ffffffffffffffffffffffffffffffffffffffff169050600073ffffffffffffffffffffffffffffffffffffffff168173ffffffffffffffffffffffffffffffffffffffff161415915050919050565b6000610c8b610a3d565b82101515610c9857600080fd5b600882815481101515610ca757fe5b90600052602060002001549050919050565b60008060008084815260200190815260200160002060009054906101000a900473ffffffffffffffffffffffffffffffffffffffff169050600073ffffffffffffffffffffffffffffffffffffffff168173ffffffffffffffffffffffffffffffffffffffff1614151515610d2d57600080fd5b80915050919050565b60008073ffffffffffffffffffffffffffffffffffffffff168273ffffffffffffffffffffffffffffffffffffffff1614151515610d7357600080fd5b600260008373ffffffffffffffffffffffffffffffffffffffff1673ffffffffffffffffffffffffffffffffffffffff168152602001908152602001600020549050919050565b606060058054600181600116156101000203166002900480601f016020809104026020016040519081016040528092919081815260200182805460018160011615610100020316600290048015610e525780601f10610e2757610100808354040283529160200191610e52565b820191906000526020600020905b815481529060010190602001808311610e3557829003601f168201915b5050505050905090565b3373ffffffffffffffffffffffffffffffffffffffff168273ffffffffffffffffffffffffffffffffffffffff1614151515610e9757600080fd5b80600360003373ffffffffffffffffffffffffffffffffffffffff1673ffffffffffffffffffffffffffffffffffffffff16815260200190815260200160002060008473ffffffffffffffffffffffffffffffffffffffff1673ffffffffffffffffffffffffffffffffffffffff16815260200190815260200160002060006101000a81548160ff0219169083151502179055508173ffffffffffffffffffffffffffffffffffffffff163373ffffffffffffffffffffffffffffffffffffffff167f17307eab39ab6107e8899845ad3d59bd9653f200f220920489ca2b5937696c3183604051808215151515815260200191505060405180910390a35050565b81610fa33382611134565b1515610fae57600080fd5b610fb9858585610a4a565b610fc585858585611621565b1515610fd057600080fd5b5050505050565b6060610fe282610c10565b1515610fed57600080fd5b600a60008381526020019081526020016000208054600181600116156101000203166002900480601f0160208091040260200160405190810160405280929190818152602001828054600181600116156101000203166002900480156110945780601f1061106957610100808354040283529160200191611094565b820191906000526020600020905b81548152906001019060200180831161107757829003601f168201915b50505050509050919050565b6000600360008473ffffffffffffffffffffffffffffffffffffffff1673ffffffffffffffffffffffffffffffffffffffff16815260200190815260200160002060008373ffffffffffffffffffffffffffffffffffffffff1673ffffffffffffffffffffffffffffffffffffffff16815260200190815260200160002060009054906101000a900460ff16905092915050565b60008061114083610cb9565b90508073ffffffffffffffffffffffffffffffffffffffff168473ffffffffffffffffffffffffffffffffffffffff1614806111af57508373ffffffffffffffffffffffffffffffffffffffff166111978461083a565b73ffffffffffffffffffffffffffffffffffffffff16145b806111c057506111bf81856110a0565b5b91505092915050565b8173ffffffffffffffffffffffffffffffffffffffff166111e982610cb9565b73ffffffffffffffffffffffffffffffffffffffff1614151561120b57600080fd5b600073ffffffffffffffffffffffffffffffffffffffff166001600083815260200190815260200160002060009054906101000a900473ffffffffffffffffffffffffffffffffffffffff1673ffffffffffffffffffffffffffffffffffffffff1614151561132e5760006001600083815260200190815260200160002060006101000a81548173ffffffffffffffffffffffffffffffffffffffff021916908373ffffffffffffffffffffffffffffffffffffffff160217905550600073ffffffffffffffffffffffffffffffffffffffff168273ffffffffffffffffffffffffffffffffffffffff167f8c5be1e5ebec7d5bd14f71427d1e84f3dd0314c0f7b2291e5b200ac8c7c3b925836040518082815260200191505060405180910390a35b5050565b6000806000611341858561180f565b600760008581526020019081526020016000205492506113ad6001600660008873ffffffffffffffffffffffffffffffffffffffff1673ffffffffffffffffffffffffffffffffffffffff1681526020019081526020016000208054905061193d90919063ffffffff16565b9150600660008673ffffffffffffffffffffffffffffffffffffffff1673ffffffffffffffffffffffffffffffffffffffff168152602001908152602001600020828154811015156113fb57fe5b9060005260206000200154905080600660008773ffffffffffffffffffffffffffffffffffffffff1673ffffffffffffffffffffffffffffffffffffffff1681526020019081526020016000208481548110151561145557fe5b90600052602060002001819055506000600660008773ffffffffffffffffffffffffffffffffffffffff1673ffffffffffffffffffffffffffffffffffffffff168152602001908152602001600020838154811015156114b157fe5b9060005260206000200181905550600660008673ffffffffffffffffffffffffffffffffffffffff1673ffffffffffffffffffffffffffffffffffffffff1681526020019081526020016000208054809190600190036115119190611adf565b50600060076000868152602001908152602001600020819055508260076000838152602001908152602001600020819055505050505050565b60006115568383611956565b600660008473ffffffffffffffffffffffffffffffffffffffff1673ffffffffffffffffffffffffffffffffffffffff168152602001908152602001600020805490509050600660008473ffffffffffffffffffffffffffffffffffffffff1673ffffffffffffffffffffffffffffffffffffffff168152602001908152602001600020829080600181540180825580915050906001820390600052602060002001600090919290919091505550806007600084815260200190815260200160002081905550505050565b6000806116438573ffffffffffffffffffffffffffffffffffffffff16611aae565b15156116525760019150611806565b8473ffffffffffffffffffffffffffffffffffffffff1663f0b9e5ba8786866040518463ffffffff167c0100000000000000000000000000000000000000000000000000000000028152600401808473ffffffffffffffffffffffffffffffffffffffff1673ffffffffffffffffffffffffffffffffffffffff16815260200183815260200180602001828103825283818151815260200191508051906020019080838360005b838110156117145780820151818401526020810190506116f9565b50505050905090810190601f1680156117415780820380516001836020036101000a031916815260200191505b50945050505050602060405180830381600087803b15801561176257600080fd5b505af1158015611776573d6000803e3d6000fd5b505050506040513d602081101561178c57600080fd5b8101908080519060200190929190505050905063f0b9e5ba7c0100000000000000000000000000000000000000000000000000000000027bffffffffffffffffffffffffffffffffffffffffffffffffffffffff1916817bffffffffffffffffffffffffffffffffffffffffffffffffffffffff19161491505b50949350505050565b8173ffffffffffffffffffffffffffffffffffffffff1661182f82610cb9565b73ffffffffffffffffffffffffffffffffffffffff1614151561185157600080fd5b6118a46001600260008573ffffffffffffffffffffffffffffffffffffffff1673ffffffffffffffffffffffffffffffffffffffff1681526020019081526020016000205461193d90919063ffffffff16565b600260008473ffffffffffffffffffffffffffffffffffffffff1673ffffffffffffffffffffffffffffffffffffffff16815260200190815260200160002081905550600080600083815260200190815260200160002060006101000a81548173ffffffffffffffffffffffffffffffffffffffff021916908373ffffffffffffffffffffffffffffffffffffffff1602179055505050565b600082821115151561194b57fe5b818303905092915050565b600073ffffffffffffffffffffffffffffffffffffffff1660008083815260200190815260200160002060009054906101000a900473ffffffffffffffffffffffffffffffffffffffff1673ffffffffffffffffffffffffffffffffffffffff161415156119c357600080fd5b8160008083815260200190815260200160002060006101000a81548173ffffffffffffffffffffffffffffffffffffffff021916908373ffffffffffffffffffffffffffffffffffffffff160217905550611a676001600260008573ffffffffffffffffffffffffffffffffffffffff1673ffffffffffffffffffffffffffffffffffffffff16815260200190815260200160002054611ac190919063ffffffff16565b600260008473ffffffffffffffffffffffffffffffffffffffff1673ffffffffffffffffffffffffffffffffffffffff168152602001908152602001600020819055505050565b600080823b905060008111915050919050565b6000808284019050838110151515611ad557fe5b8091505092915050565b815481835581811115611b0657818360005260206000209182019101611b059190611b0b565b5b505050565b611b2d91905b80821115611b29576000816000905550600101611b11565b5090565b905600a165627a7a7230582050be5a769fe069d107b4be6b02d492c8aa75ede63ea43a9e3e571011bcc3ad770029",
  "source": "pragma solidity ^0.4.24;\r\n\r\nimport \"./ERC721.sol\";\r\nimport \"./ERC721BasicToken.sol\";\r\n\r\n\r\n/**\r\n * @title Full ERC721 Token\r\n * This implementation includes all the required and some optional functionality of the ERC721 standard\r\n * Moreover, it includes approve all functionality using operator terminology\r\n * @dev see https://github.com/ethereum/EIPs/blob/master/EIPS/eip-721.md\r\n */\r\ncontract ERC721Token is ERC721, ERC721BasicToken {\r\n  // Token name\r\n  string internal name_;\r\n\r\n  // Token symbol\r\n  string internal symbol_;\r\n\r\n  // Mapping from owner to list of owned token IDs\r\n  mapping (address => uint256[]) internal ownedTokens;\r\n\r\n  // Mapping from token ID to index of the owner tokens list\r\n  mapping(uint256 => uint256) internal ownedTokensIndex;\r\n\r\n  // Array with all token ids, used for enumeration\r\n  uint256[] internal allTokens;\r\n\r\n  // Mapping from token id to position in the allTokens array\r\n  mapping(uint256 => uint256) internal allTokensIndex;\r\n\r\n  // Optional mapping for token URIs\r\n  mapping(uint256 => string) internal tokenURIs;\r\n\r\n  /**\r\n  * @dev Constructor function\r\n  */\r\n  constructor(string memory _name, string memory _symbol) public {\r\n    name_ = _name;\r\n    symbol_ = _symbol;\r\n  }\r\n\r\n  /**\r\n  * @dev Gets the token name\r\n  * @return string representing the token name\r\n  */\r\n  function name() public view returns (string memory) {\r\n    return name_;\r\n  }\r\n\r\n  /**\r\n  * @dev Gets the token symbol\r\n  * @return string representing the token symbol\r\n  */\r\n  function symbol() public view returns (string memory) {\r\n    return symbol_;\r\n  }\r\n\r\n  /**\r\n  * @dev Returns an URI for a given token ID\r\n  * @dev Throws if the token ID does not exist. May return an empty string.\r\n  * @param _tokenId uint256 ID of the token to query\r\n  */\r\n  function tokenURI(uint256 _tokenId) public view returns (string memory) {\r\n    require(exists(_tokenId));\r\n    return tokenURIs[_tokenId];\r\n  }\r\n\r\n  /**\r\n  * @dev Gets the token ID at a given index of the tokens list of the requested owner\r\n  * @param _owner address owning the tokens list to be accessed\r\n  * @param _index uint256 representing the index to be accessed of the requested tokens list\r\n  * @return uint256 token ID at the given index of the tokens list owned by the requested address\r\n  */\r\n  function tokenOfOwnerByIndex(address _owner, uint256 _index) public view returns (uint256) {\r\n    require(_index < balanceOf(_owner));\r\n    return ownedTokens[_owner][_index];\r\n  }\r\n\r\n  /**\r\n  * @dev Gets the total amount of tokens stored by the contract\r\n  * @return uint256 representing the total amount of tokens\r\n  */\r\n  function totalSupply() public view returns (uint256) {\r\n    return allTokens.length;\r\n  }\r\n\r\n  /**\r\n  * @dev Gets the token ID at a given index of all the tokens in this contract\r\n  * @dev Reverts if the index is greater or equal to the total number of tokens\r\n  * @param _index uint256 representing the index to be accessed of the tokens list\r\n  * @return uint256 token ID at the given index of the tokens list\r\n  */\r\n  function tokenByIndex(uint256 _index) public view returns (uint256) {\r\n    require(_index < totalSupply());\r\n    return allTokens[_index];\r\n  }\r\n\r\n  /**\r\n  * @dev Internal function to set the token URI for a given token\r\n  * @dev Reverts if the token ID does not exist\r\n  * @param _tokenId uint256 ID of the token to set its URI\r\n  * @param _uri string URI to assign\r\n  */\r\n  function _setTokenURI(uint256 _tokenId, string memory _uri) internal {\r\n    require(exists(_tokenId));\r\n    tokenURIs[_tokenId] = _uri;\r\n  }\r\n\r\n  /**\r\n  * @dev Internal function to add a token ID to the list of a given address\r\n  * @param _to address representing the new owner of the given token ID\r\n  * @param _tokenId uint256 ID of the token to be added to the tokens list of the given address\r\n  */\r\n  function addTokenTo(address _to, uint256 _tokenId) internal {\r\n    super.addTokenTo(_to, _tokenId);\r\n    uint256 length = ownedTokens[_to].length;\r\n    ownedTokens[_to].push(_tokenId);\r\n    ownedTokensIndex[_tokenId] = length;\r\n  }\r\n\r\n  /**\r\n  * @dev Internal function to remove a token ID from the list of a given address\r\n  * @param _from address representing the previous owner of the given token ID\r\n  * @param _tokenId uint256 ID of the token to be removed from the tokens list of the given address\r\n  */\r\n  function removeTokenFrom(address _from, uint256 _tokenId) internal {\r\n    super.removeTokenFrom(_from, _tokenId);\r\n\r\n    uint256 tokenIndex = ownedTokensIndex[_tokenId];\r\n    uint256 lastTokenIndex = ownedTokens[_from].length.sub(1);\r\n    uint256 lastToken = ownedTokens[_from][lastTokenIndex];\r\n\r\n    ownedTokens[_from][tokenIndex] = lastToken;\r\n    ownedTokens[_from][lastTokenIndex] = 0;\r\n    // Note that this will handle single-element arrays. In that case, both tokenIndex and lastTokenIndex are going to\r\n    // be zero. Then we can make sure that we will remove _tokenId from the ownedTokens list since we are first swapping\r\n    // the lastToken to the first position, and then dropping the element placed in the last position of the list\r\n\r\n    ownedTokens[_from].length--;\r\n    ownedTokensIndex[_tokenId] = 0;\r\n    ownedTokensIndex[lastToken] = tokenIndex;\r\n  }\r\n\r\n  /**\r\n  * @dev Internal function to mint a new token\r\n  * @dev Reverts if the given token ID already exists\r\n  * @param _to address the beneficiary that will own the minted token\r\n  * @param _tokenId uint256 ID of the token to be minted by the msg.sender\r\n  */\r\n  function _mint(address _to, uint256 _tokenId) internal {\r\n    super._mint(_to, _tokenId);\r\n\r\n    allTokensIndex[_tokenId] = allTokens.length;\r\n    allTokens.push(_tokenId);\r\n  }\r\n\r\n  /**\r\n  * @dev Internal function to burn a specific token\r\n  * @dev Reverts if the token does not exist\r\n  * @param _owner owner of the token to burn\r\n  * @param _tokenId uint256 ID of the token being burned by the msg.sender\r\n  */\r\n  function _burn(address _owner, uint256 _tokenId) internal {\r\n    super._burn(_owner, _tokenId);\r\n\r\n    // Clear metadata (if any)\r\n    if (bytes(tokenURIs[_tokenId]).length != 0) {\r\n      delete tokenURIs[_tokenId];\r\n    }\r\n\r\n    // Reorg all tokens array\r\n    uint256 tokenIndex = allTokensIndex[_tokenId];\r\n    uint256 lastTokenIndex = allTokens.length.sub(1);\r\n    uint256 lastToken = allTokens[lastTokenIndex];\r\n\r\n    allTokens[tokenIndex] = lastToken;\r\n    allTokens[lastTokenIndex] = 0;\r\n\r\n    allTokens.length--;\r\n    allTokensIndex[_tokenId] = 0;\r\n    allTokensIndex[lastToken] = tokenIndex;\r\n  }\r\n\r\n}",
  "sourcePath": "D:/SoluLab/XinFin/Matic Nft Subgraph/contracts/ERC721Token.sol",
  "compiler": {
    "name": "solc",
    "version": "0.4.24+commit.e67f0147.Emscripten.clang"
  },
  "schemaVersion": "3.4.1",
  "updatedAt": "2021-08-03T06:00:24.431Z",
  "devdoc": {
    "methods": {
      "approve(address,uint256)": {
        "details": "Approves another address to transfer the given token ID\rThe zero address indicates there is no approved address.\rThere can only be one approved address per token at a given time.\rCan only be called by the token owner or an approved operator.\r",
        "params": {
          "_to": "address to be approved for the given token ID\r",
          "_tokenId": "uint256 ID of the token to be approved\r"
        }
      },
      "balanceOf(address)": {
        "details": "Gets the balance of the specified address\r",
        "params": {
          "_owner": "address to query the balance of\r"
        },
        "return": "uint256 representing the amount owned by the passed address\r"
      },
      "exists(uint256)": {
        "details": "Returns whether the specified token exists\r",
        "params": {
          "_tokenId": "uint256 ID of the token to query the existance of\r"
        },
        "return": "whether the token exists\r"
      },
      "getApproved(uint256)": {
        "details": "Gets the approved address for a token ID, or zero if no address set\r",
        "params": {
          "_tokenId": "uint256 ID of the token to query the approval of\r"
        },
        "return": "address currently approved for a the given token ID\r"
      },
      "isApprovedForAll(address,address)": {
        "details": "Tells whether an operator is approved by a given owner\r",
        "params": {
          "_operator": "operator address which you want to query the approval of\r",
          "_owner": "owner address which you want to query the approval of\r"
        },
        "return": "bool whether the given operator is approved by the given owner\r"
      },
      "name()": {
        "details": "Gets the token name\r",
        "return": "string representing the token name\r"
      },
      "ownerOf(uint256)": {
        "details": "Gets the owner of the specified token ID\r",
        "params": {
          "_tokenId": "uint256 ID of the token to query the owner of\r"
        },
        "return": "owner address currently marked as the owner of the given token ID\r"
      },
      "safeTransferFrom(address,address,uint256)": {
        "details": "Safely transfers the ownership of a given token ID to another address\rIf the target address is a contract, it must implement `onERC721Received`,\r which is called upon a safe transfer, and return the magic value\r `bytes4(keccak256(\"onERC721Received(address,uint256,bytes)\"))`; otherwise,\r the transfer is reverted.\rRequires the msg sender to be the owner, approved, or operator\r",
        "params": {
          "_from": "current owner of the token\r",
          "_to": "address to receive the ownership of the given token ID\r",
          "_tokenId": "uint256 ID of the token to be transferred\r"
        }
      },
      "safeTransferFrom(address,address,uint256,bytes)": {
        "details": "Safely transfers the ownership of a given token ID to another address\rIf the target address is a contract, it must implement `onERC721Received`,\r which is called upon a safe transfer, and return the magic value\r `bytes4(keccak256(\"onERC721Received(address,uint256,bytes)\"))`; otherwise,\r the transfer is reverted.\rRequires the msg sender to be the owner, approved, or operator\r",
        "params": {
          "_data": "bytes data to send along with a safe transfer check\r",
          "_from": "current owner of the token\r",
          "_to": "address to receive the ownership of the given token ID\r",
          "_tokenId": "uint256 ID of the token to be transferred\r"
        }
      },
      "setApprovalForAll(address,bool)": {
        "details": "Sets or unsets the approval of a given operator\rAn operator is allowed to transfer all tokens of the sender on their behalf\r",
        "params": {
          "_approved": "representing the status of the approval to be set\r",
          "_to": "operator address to set the approval\r"
        }
      },
      "symbol()": {
        "details": "Gets the token symbol\r",
        "return": "string representing the token symbol\r"
      },
      "tokenByIndex(uint256)": {
        "details": "Gets the token ID at a given index of all the tokens in this contract\rReverts if the index is greater or equal to the total number of tokens\r",
        "params": {
          "_index": "uint256 representing the index to be accessed of the tokens list\r"
        },
        "return": "uint256 token ID at the given index of the tokens list\r"
      },
      "tokenOfOwnerByIndex(address,uint256)": {
        "details": "Gets the token ID at a given index of the tokens list of the requested owner\r",
        "params": {
          "_index": "uint256 representing the index to be accessed of the requested tokens list\r",
          "_owner": "address owning the tokens list to be accessed\r"
        },
        "return": "uint256 token ID at the given index of the tokens list owned by the requested address\r"
      },
      "tokenURI(uint256)": {
        "details": "Returns an URI for a given token ID\rThrows if the token ID does not exist. May return an empty string.\r",
        "params": {
          "_tokenId": "uint256 ID of the token to query\r"
        }
      },
      "totalSupply()": {
        "details": "Gets the total amount of tokens stored by the contract\r",
        "return": "uint256 representing the total amount of tokens\r"
      },
      "transferFrom(address,address,uint256)": {
        "details": "Transfers the ownership of a given token ID to another address\rUsage of this method is discouraged, use `safeTransferFrom` whenever possible\rRequires the msg sender to be the owner, approved, or operator\r",
        "params": {
          "_from": "current owner of the token\r",
          "_to": "address to receive the ownership of the given token ID\r",
          "_tokenId": "uint256 ID of the token to be transferred\r"
        }
      }
    },
    "title": "Full ERC721 Token\r This implementation includes all the required and some optional functionality of the ERC721 standard\r Moreover, it includes approve all functionality using operator terminology\r"
  },
  "userdoc": {
    "methods": {}
  }
}