{
  "contractName": "ERC721BasicToken",
  "abi": [
    {
      "anonymous": false,
      "inputs": [
        {
          "indexed": true,
          "name": "_from",
          "type": "address"
        },
        {
          "indexed": true,
          "name": "_to",
          "type": "address"
        },
        {
          "indexed": false,
          "name": "_tokenId",
          "type": "uint256"
        }
      ],
      "name": "Transfer",
      "type": "event"
    },
    {
      "anonymous": false,
      "inputs": [
        {
          "indexed": true,
          "name": "_owner",
          "type": "address"
        },
        {
          "indexed": true,
          "name": "_approved",
          "type": "address"
        },
        {
          "indexed": false,
          "name": "_tokenId",
          "type": "uint256"
        }
      ],
      "name": "Approval",
      "type": "event"
    },
    {
      "anonymous": false,
      "inputs": [
        {
          "indexed": true,
          "name": "_owner",
          "type": "address"
        },
        {
          "indexed": true,
          "name": "_operator",
          "type": "address"
        },
        {
          "indexed": false,
          "name": "_approved",
          "type": "bool"
        }
      ],
      "name": "ApprovalForAll",
      "type": "event"
    },
    {
      "constant": true,
      "inputs": [
        {
          "name": "_owner",
          "type": "address"
        }
      ],
      "name": "balanceOf",
      "outputs": [
        {
          "name": "",
          "type": "uint256"
        }
      ],
      "payable": false,
      "stateMutability": "view",
      "type": "function"
    },
    {
      "constant": true,
      "inputs": [
        {
          "name": "_tokenId",
          "type": "uint256"
        }
      ],
      "name": "ownerOf",
      "outputs": [
        {
          "name": "",
          "type": "address"
        }
      ],
      "payable": false,
      "stateMutability": "view",
      "type": "function"
    },
    {
      "constant": true,
      "inputs": [
        {
          "name": "_tokenId",
          "type": "uint256"
        }
      ],
      "name": "exists",
      "outputs": [
        {
          "name": "",
          "type": "bool"
        }
      ],
      "payable": false,
      "stateMutability": "view",
      "type": "function"
    },
    {
      "constant": false,
      "inputs": [
        {
          "name": "_to",
          "type": "address"
        },
        {
          "name": "_tokenId",
          "type": "uint256"
        }
      ],
      "name": "approve",
      "outputs": [],
      "payable": false,
      "stateMutability": "nonpayable",
      "type": "function"
    },
    {
      "constant": true,
      "inputs": [
        {
          "name": "_tokenId",
          "type": "uint256"
        }
      ],
      "name": "getApproved",
      "outputs": [
        {
          "name": "",
          "type": "address"
        }
      ],
      "payable": false,
      "stateMutability": "view",
      "type": "function"
    },
    {
      "constant": false,
      "inputs": [
        {
          "name": "_to",
          "type": "address"
        },
        {
          "name": "_approved",
          "type": "bool"
        }
      ],
      "name": "setApprovalForAll",
      "outputs": [],
      "payable": false,
      "stateMutability": "nonpayable",
      "type": "function"
    },
    {
      "constant": true,
      "inputs": [
        {
          "name": "_owner",
          "type": "address"
        },
        {
          "name": "_operator",
          "type": "address"
        }
      ],
      "name": "isApprovedForAll",
      "outputs": [
        {
          "name": "",
          "type": "bool"
        }
      ],
      "payable": false,
      "stateMutability": "view",
      "type": "function"
    },
    {
      "constant": false,
      "inputs": [
        {
          "name": "_from",
          "type": "address"
        },
        {
          "name": "_to",
          "type": "address"
        },
        {
          "name": "_tokenId",
          "type": "uint256"
        }
      ],
      "name": "transferFrom",
      "outputs": [],
      "payable": false,
      "stateMutability": "nonpayable",
      "type": "function"
    },
    {
      "constant": false,
      "inputs": [
        {
          "name": "_from",
          "type": "address"
        },
        {
          "name": "_to",
          "type": "address"
        },
        {
          "name": "_tokenId",
          "type": "uint256"
        }
      ],
      "name": "safeTransferFrom",
      "outputs": [],
      "payable": false,
      "stateMutability": "nonpayable",
      "type": "function"
    },
    {
      "constant": false,
      "inputs": [
        {
          "name": "_from",
          "type": "address"
        },
        {
          "name": "_to",
          "type": "address"
        },
        {
          "name": "_tokenId",
          "type": "uint256"
        },
        {
          "name": "_data",
          "type": "bytes"
        }
      ],
      "name": "safeTransferFrom",
      "outputs": [],
      "payable": false,
      "stateMutability": "nonpayable",
      "type": "function"
    }
  ],
  "bytecode": "0x608060405234801561001057600080fd5b5061127e806100206000396000f3006080604052600436106100a4576000357c0100000000000000000000000000000000000000000000000000000000900463ffffffff168063081812fc146100a9578063095ea7b31461011657806323b872dd1461016357806342842e0e146101d05780634f558e791461023d5780636352211e1461028257806370a08231146102ef578063a22cb46514610346578063b88d4fde14610395578063e985e9c514610448575b600080fd5b3480156100b557600080fd5b506100d4600480360381019080803590602001909291905050506104c3565b604051808273ffffffffffffffffffffffffffffffffffffffff1673ffffffffffffffffffffffffffffffffffffffff16815260200191505060405180910390f35b34801561012257600080fd5b50610161600480360381019080803573ffffffffffffffffffffffffffffffffffffffff16906020019092919080359060200190929190505050610500565b005b34801561016f57600080fd5b506101ce600480360381019080803573ffffffffffffffffffffffffffffffffffffffff169060200190929190803573ffffffffffffffffffffffffffffffffffffffff169060200190929190803590602001909291905050506106c6565b005b3480156101dc57600080fd5b5061023b600480360381019080803573ffffffffffffffffffffffffffffffffffffffff169060200190929190803573ffffffffffffffffffffffffffffffffffffffff169060200190929190803590602001909291905050506107dd565b005b34801561024957600080fd5b5061026860048036038101908080359060200190929190505050610815565b604051808215151515815260200191505060405180910390f35b34801561028e57600080fd5b506102ad60048036038101908080359060200190929190505050610886565b604051808273ffffffffffffffffffffffffffffffffffffffff1673ffffffffffffffffffffffffffffffffffffffff16815260200191505060405180910390f35b3480156102fb57600080fd5b50610330600480360381019080803573ffffffffffffffffffffffffffffffffffffffff169060200190929190505050610903565b6040518082815260200191505060405180910390f35b34801561035257600080fd5b50610393600480360381019080803573ffffffffffffffffffffffffffffffffffffffff169060200190929190803515159060200190929190505050610987565b005b3480156103a157600080fd5b50610446600480360381019080803573ffffffffffffffffffffffffffffffffffffffff169060200190929190803573ffffffffffffffffffffffffffffffffffffffff16906020019092919080359060200190929190803590602001908201803590602001908080601f0160208091040260200160405190810160405280939291908181526020018383808284378201915050505050509192919290505050610ac3565b005b34801561045457600080fd5b506104a9600480360381019080803573ffffffffffffffffffffffffffffffffffffffff169060200190929190803573ffffffffffffffffffffffffffffffffffffffff169060200190929190505050610b02565b604051808215151515815260200191505060405180910390f35b60006001600083815260200190815260200160002060009054906101000a900473ffffffffffffffffffffffffffffffffffffffff169050919050565b600061050b82610886565b90508073ffffffffffffffffffffffffffffffffffffffff168373ffffffffffffffffffffffffffffffffffffffff161415151561054857600080fd5b8073ffffffffffffffffffffffffffffffffffffffff163373ffffffffffffffffffffffffffffffffffffffff16148061058857506105878133610b02565b5b151561059357600080fd5b600073ffffffffffffffffffffffffffffffffffffffff166105b4836104c3565b73ffffffffffffffffffffffffffffffffffffffff161415806106045750600073ffffffffffffffffffffffffffffffffffffffff168373ffffffffffffffffffffffffffffffffffffffff1614155b156106c157826001600084815260200190815260200160002060006101000a81548173ffffffffffffffffffffffffffffffffffffffff021916908373ffffffffffffffffffffffffffffffffffffffff1602179055508273ffffffffffffffffffffffffffffffffffffffff168173ffffffffffffffffffffffffffffffffffffffff167f8c5be1e5ebec7d5bd14f71427d1e84f3dd0314c0f7b2291e5b200ac8c7c3b925846040518082815260200191505060405180910390a35b505050565b806106d13382610b96565b15156106dc57600080fd5b600073ffffffffffffffffffffffffffffffffffffffff168473ffffffffffffffffffffffffffffffffffffffff161415151561071857600080fd5b600073ffffffffffffffffffffffffffffffffffffffff168373ffffffffffffffffffffffffffffffffffffffff161415151561075457600080fd5b61075e8483610c2b565b6107688483610d94565b6107728383610ec2565b8273ffffffffffffffffffffffffffffffffffffffff168473ffffffffffffffffffffffffffffffffffffffff167fddf252ad1be2c89b69c2b068fc378daa952ba7f163c4a11628f55a4df523b3ef846040518082815260200191505060405180910390a350505050565b806107e83382610b96565b15156107f357600080fd5b61080f8484846020604051908101604052806000815250610ac3565b50505050565b60008060008084815260200190815260200160002060009054906101000a900473ffffffffffffffffffffffffffffffffffffffff169050600073ffffffffffffffffffffffffffffffffffffffff168173ffffffffffffffffffffffffffffffffffffffff161415915050919050565b60008060008084815260200190815260200160002060009054906101000a900473ffffffffffffffffffffffffffffffffffffffff169050600073ffffffffffffffffffffffffffffffffffffffff168173ffffffffffffffffffffffffffffffffffffffff16141515156108fa57600080fd5b80915050919050565b60008073ffffffffffffffffffffffffffffffffffffffff168273ffffffffffffffffffffffffffffffffffffffff161415151561094057600080fd5b600260008373ffffffffffffffffffffffffffffffffffffffff1673ffffffffffffffffffffffffffffffffffffffff168152602001908152602001600020549050919050565b3373ffffffffffffffffffffffffffffffffffffffff168273ffffffffffffffffffffffffffffffffffffffff16141515156109c257600080fd5b80600360003373ffffffffffffffffffffffffffffffffffffffff1673ffffffffffffffffffffffffffffffffffffffff16815260200190815260200160002060008473ffffffffffffffffffffffffffffffffffffffff1673ffffffffffffffffffffffffffffffffffffffff16815260200190815260200160002060006101000a81548160ff0219169083151502179055508173ffffffffffffffffffffffffffffffffffffffff163373ffffffffffffffffffffffffffffffffffffffff167f17307eab39ab6107e8899845ad3d59bd9653f200f220920489ca2b5937696c3183604051808215151515815260200191505060405180910390a35050565b81610ace3382610b96565b1515610ad957600080fd5b610ae48585856106c6565b610af08585858561101a565b1515610afb57600080fd5b5050505050565b6000600360008473ffffffffffffffffffffffffffffffffffffffff1673ffffffffffffffffffffffffffffffffffffffff16815260200190815260200160002060008373ffffffffffffffffffffffffffffffffffffffff1673ffffffffffffffffffffffffffffffffffffffff16815260200190815260200160002060009054906101000a900460ff16905092915050565b600080610ba283610886565b90508073ffffffffffffffffffffffffffffffffffffffff168473ffffffffffffffffffffffffffffffffffffffff161480610c1157508373ffffffffffffffffffffffffffffffffffffffff16610bf9846104c3565b73ffffffffffffffffffffffffffffffffffffffff16145b80610c225750610c218185610b02565b5b91505092915050565b8173ffffffffffffffffffffffffffffffffffffffff16610c4b82610886565b73ffffffffffffffffffffffffffffffffffffffff16141515610c6d57600080fd5b600073ffffffffffffffffffffffffffffffffffffffff166001600083815260200190815260200160002060009054906101000a900473ffffffffffffffffffffffffffffffffffffffff1673ffffffffffffffffffffffffffffffffffffffff16141515610d905760006001600083815260200190815260200160002060006101000a81548173ffffffffffffffffffffffffffffffffffffffff021916908373ffffffffffffffffffffffffffffffffffffffff160217905550600073ffffffffffffffffffffffffffffffffffffffff168273ffffffffffffffffffffffffffffffffffffffff167f8c5be1e5ebec7d5bd14f71427d1e84f3dd0314c0f7b2291e5b200ac8c7c3b925836040518082815260200191505060405180910390a35b5050565b8173ffffffffffffffffffffffffffffffffffffffff16610db482610886565b73ffffffffffffffffffffffffffffffffffffffff16141515610dd657600080fd5b610e296001600260008573ffffffffffffffffffffffffffffffffffffffff1673ffffffffffffffffffffffffffffffffffffffff1681526020019081526020016000205461120890919063ffffffff16565b600260008473ffffffffffffffffffffffffffffffffffffffff1673ffffffffffffffffffffffffffffffffffffffff16815260200190815260200160002081905550600080600083815260200190815260200160002060006101000a81548173ffffffffffffffffffffffffffffffffffffffff021916908373ffffffffffffffffffffffffffffffffffffffff1602179055505050565b600073ffffffffffffffffffffffffffffffffffffffff1660008083815260200190815260200160002060009054906101000a900473ffffffffffffffffffffffffffffffffffffffff1673ffffffffffffffffffffffffffffffffffffffff16141515610f2f57600080fd5b8160008083815260200190815260200160002060006101000a81548173ffffffffffffffffffffffffffffffffffffffff021916908373ffffffffffffffffffffffffffffffffffffffff160217905550610fd36001600260008573ffffffffffffffffffffffffffffffffffffffff1673ffffffffffffffffffffffffffffffffffffffff1681526020019081526020016000205461122190919063ffffffff16565b600260008473ffffffffffffffffffffffffffffffffffffffff1673ffffffffffffffffffffffffffffffffffffffff168152602001908152602001600020819055505050565b60008061103c8573ffffffffffffffffffffffffffffffffffffffff1661123f565b151561104b57600191506111ff565b8473ffffffffffffffffffffffffffffffffffffffff1663f0b9e5ba8786866040518463ffffffff167c0100000000000000000000000000000000000000000000000000000000028152600401808473ffffffffffffffffffffffffffffffffffffffff1673ffffffffffffffffffffffffffffffffffffffff16815260200183815260200180602001828103825283818151815260200191508051906020019080838360005b8381101561110d5780820151818401526020810190506110f2565b50505050905090810190601f16801561113a5780820380516001836020036101000a031916815260200191505b50945050505050602060405180830381600087803b15801561115b57600080fd5b505af115801561116f573d6000803e3d6000fd5b505050506040513d602081101561118557600080fd5b8101908080519060200190929190505050905063f0b9e5ba7c0100000000000000000000000000000000000000000000000000000000027bffffffffffffffffffffffffffffffffffffffffffffffffffffffff1916817bffffffffffffffffffffffffffffffffffffffffffffffffffffffff19161491505b50949350505050565b600082821115151561121657fe5b818303905092915050565b600080828401905083811015151561123557fe5b8091505092915050565b600080823b9050600081119150509190505600a165627a7a723058202f8eaceb00d5a84f4223a68619838152eeabbdced2951c050e6a8976aa4fb12c0029",
  "source": "pragma solidity ^0.4.24;\r\n\r\nimport \"./ERC721Basic.sol\";\r\nimport \"./ERC721Receiver.sol\";\r\nimport \"./SafeMath.sol\";\r\nimport \"./AddressUtils.sol\";\r\n\r\n\r\n/**\r\n * @title ERC721 Non-Fungible Token Standard basic implementation\r\n * @dev see https://github.com/ethereum/EIPs/blob/master/EIPS/eip-721.md\r\n */\r\ncontract ERC721BasicToken is ERC721Basic {\r\n  using SafeMath for uint256;\r\n  using AddressUtils for address;\r\n\r\n  // Equals to `bytes4(keccak256(\"onERC721Received(address,uint256,bytes)\"))`\r\n  // which can be also obtained as `ERC721Receiver(0).onERC721Received.selector`\r\n  bytes4 constant ERC721_RECEIVED = 0xf0b9e5ba;\r\n\r\n  // Mapping from token ID to owner\r\n  mapping (uint256 => address) internal tokenOwner;\r\n\r\n  // Mapping from token ID to approved address\r\n  mapping (uint256 => address) internal tokenApprovals;\r\n\r\n  // Mapping from owner to number of owned token\r\n  mapping (address => uint256) internal ownedTokensCount;\r\n\r\n  // Mapping from owner to operator approvals\r\n  mapping (address => mapping (address => bool)) internal operatorApprovals;\r\n\r\n  /**\r\n  * @dev Guarantees msg.sender is owner of the given token\r\n  * @param _tokenId uint256 ID of the token to validate its ownership belongs to msg.sender\r\n  */\r\n  modifier onlyOwnerOf(uint256 _tokenId) {\r\n    require(ownerOf(_tokenId) == msg.sender);\r\n    _;\r\n  }\r\n\r\n  /**\r\n  * @dev Checks msg.sender can transfer a token, by being owner, approved, or operator\r\n  * @param _tokenId uint256 ID of the token to validate\r\n  */\r\n  modifier canTransfer(uint256 _tokenId) {\r\n    require(isApprovedOrOwner(msg.sender, _tokenId));\r\n    _;\r\n  }\r\n\r\n  /**\r\n  * @dev Gets the balance of the specified address\r\n  * @param _owner address to query the balance of\r\n  * @return uint256 representing the amount owned by the passed address\r\n  */\r\n  function balanceOf(address _owner) public view returns (uint256) {\r\n    require(_owner != address(0));\r\n    return ownedTokensCount[_owner];\r\n  }\r\n\r\n  /**\r\n  * @dev Gets the owner of the specified token ID\r\n  * @param _tokenId uint256 ID of the token to query the owner of\r\n  * @return owner address currently marked as the owner of the given token ID\r\n  */\r\n  function ownerOf(uint256 _tokenId) public view returns (address) {\r\n    address owner = tokenOwner[_tokenId];\r\n    require(owner != address(0));\r\n    return owner;\r\n  }\r\n\r\n  /**\r\n  * @dev Returns whether the specified token exists\r\n  * @param _tokenId uint256 ID of the token to query the existance of\r\n  * @return whether the token exists\r\n  */\r\n  function exists(uint256 _tokenId) public view returns (bool) {\r\n    address owner = tokenOwner[_tokenId];\r\n    return owner != address(0);\r\n  }\r\n\r\n  /**\r\n  * @dev Approves another address to transfer the given token ID\r\n  * @dev The zero address indicates there is no approved address.\r\n  * @dev There can only be one approved address per token at a given time.\r\n  * @dev Can only be called by the token owner or an approved operator.\r\n  * @param _to address to be approved for the given token ID\r\n  * @param _tokenId uint256 ID of the token to be approved\r\n  */\r\n  function approve(address _to, uint256 _tokenId) public {\r\n    address owner = ownerOf(_tokenId);\r\n    require(_to != owner);\r\n    require(msg.sender == owner || isApprovedForAll(owner, msg.sender));\r\n\r\n    if (getApproved(_tokenId) != address(0) || _to != address(0)) {\r\n      tokenApprovals[_tokenId] = _to;\r\n      emit Approval(owner, _to, _tokenId);\r\n    }\r\n  }\r\n\r\n  /**\r\n   * @dev Gets the approved address for a token ID, or zero if no address set\r\n   * @param _tokenId uint256 ID of the token to query the approval of\r\n   * @return address currently approved for a the given token ID\r\n   */\r\n  function getApproved(uint256 _tokenId) public view returns (address) {\r\n    return tokenApprovals[_tokenId];\r\n  }\r\n\r\n  /**\r\n  * @dev Sets or unsets the approval of a given operator\r\n  * @dev An operator is allowed to transfer all tokens of the sender on their behalf\r\n  * @param _to operator address to set the approval\r\n  * @param _approved representing the status of the approval to be set\r\n  */\r\n  function setApprovalForAll(address _to, bool _approved) public {\r\n    require(_to != msg.sender);\r\n    operatorApprovals[msg.sender][_to] = _approved;\r\n    emit ApprovalForAll(msg.sender, _to, _approved);\r\n  }\r\n\r\n  /**\r\n   * @dev Tells whether an operator is approved by a given owner\r\n   * @param _owner owner address which you want to query the approval of\r\n   * @param _operator operator address which you want to query the approval of\r\n   * @return bool whether the given operator is approved by the given owner\r\n   */\r\n  function isApprovedForAll(address _owner, address _operator) public view returns (bool) {\r\n    return operatorApprovals[_owner][_operator];\r\n  }\r\n\r\n  /**\r\n  * @dev Transfers the ownership of a given token ID to another address\r\n  * @dev Usage of this method is discouraged, use `safeTransferFrom` whenever possible\r\n  * @dev Requires the msg sender to be the owner, approved, or operator\r\n  * @param _from current owner of the token\r\n  * @param _to address to receive the ownership of the given token ID\r\n  * @param _tokenId uint256 ID of the token to be transferred\r\n  */\r\n  function transferFrom(address _from, address _to, uint256 _tokenId) public canTransfer(_tokenId) {\r\n    require(_from != address(0));\r\n    require(_to != address(0));\r\n\r\n    clearApproval(_from, _tokenId);\r\n    removeTokenFrom(_from, _tokenId);\r\n    addTokenTo(_to, _tokenId);\r\n\r\n    emit Transfer(_from, _to, _tokenId);\r\n  }\r\n\r\n  /**\r\n  * @dev Safely transfers the ownership of a given token ID to another address\r\n  * @dev If the target address is a contract, it must implement `onERC721Received`,\r\n  *  which is called upon a safe transfer, and return the magic value\r\n  *  `bytes4(keccak256(\"onERC721Received(address,uint256,bytes)\"))`; otherwise,\r\n  *  the transfer is reverted.\r\n  * @dev Requires the msg sender to be the owner, approved, or operator\r\n  * @param _from current owner of the token\r\n  * @param _to address to receive the ownership of the given token ID\r\n  * @param _tokenId uint256 ID of the token to be transferred\r\n  */\r\n  function safeTransferFrom(\r\n    address _from,\r\n    address _to,\r\n    uint256 _tokenId\r\n  )\r\n    public\r\n    canTransfer(_tokenId)\r\n  {\r\n    safeTransferFrom(_from, _to, _tokenId, \"\");\r\n  }\r\n\r\n  /**\r\n  * @dev Safely transfers the ownership of a given token ID to another address\r\n  * @dev If the target address is a contract, it must implement `onERC721Received`,\r\n  *  which is called upon a safe transfer, and return the magic value\r\n  *  `bytes4(keccak256(\"onERC721Received(address,uint256,bytes)\"))`; otherwise,\r\n  *  the transfer is reverted.\r\n  * @dev Requires the msg sender to be the owner, approved, or operator\r\n  * @param _from current owner of the token\r\n  * @param _to address to receive the ownership of the given token ID\r\n  * @param _tokenId uint256 ID of the token to be transferred\r\n  * @param _data bytes data to send along with a safe transfer check\r\n  */\r\n  function safeTransferFrom(\r\n    address _from,\r\n    address _to,\r\n    uint256 _tokenId,\r\n    bytes memory _data\r\n  )\r\n    public\r\n    canTransfer(_tokenId)\r\n  {\r\n    transferFrom(_from, _to, _tokenId);\r\n    require(checkAndCallSafeTransfer(_from, _to, _tokenId, _data));\r\n  }\r\n\r\n  /**\r\n   * @dev Returns whether the given spender can transfer a given token ID\r\n   * @param _spender address of the spender to query\r\n   * @param _tokenId uint256 ID of the token to be transferred\r\n   * @return bool whether the msg.sender is approved for the given token ID,\r\n   *  is an operator of the owner, or is the owner of the token\r\n   */\r\n  function isApprovedOrOwner(address _spender, uint256 _tokenId) internal view returns (bool) {\r\n    address owner = ownerOf(_tokenId);\r\n    return _spender == owner || getApproved(_tokenId) == _spender || isApprovedForAll(owner, _spender);\r\n  }\r\n\r\n  /**\r\n  * @dev Internal function to mint a new token\r\n  * @dev Reverts if the given token ID already exists\r\n  * @param _to The address that will own the minted token\r\n  * @param _tokenId uint256 ID of the token to be minted by the msg.sender\r\n  */\r\n  function _mint(address _to, uint256 _tokenId) internal {\r\n    require(_to != address(0));\r\n    addTokenTo(_to, _tokenId);\r\n    emit Transfer(address(0), _to, _tokenId);\r\n  }\r\n\r\n  /**\r\n  * @dev Internal function to burn a specific token\r\n  * @dev Reverts if the token does not exist\r\n  * @param _tokenId uint256 ID of the token being burned by the msg.sender\r\n  */\r\n  function _burn(address _owner, uint256 _tokenId) internal {\r\n    clearApproval(_owner, _tokenId);\r\n    removeTokenFrom(_owner, _tokenId);\r\n    emit Transfer(_owner, address(0), _tokenId);\r\n  }\r\n\r\n  /**\r\n  * @dev Internal function to clear current approval of a given token ID\r\n  * @dev Reverts if the given address is not indeed the owner of the token\r\n  * @param _owner owner of the token\r\n  * @param _tokenId uint256 ID of the token to be transferred\r\n  */\r\n  function clearApproval(address _owner, uint256 _tokenId) internal {\r\n    require(ownerOf(_tokenId) == _owner);\r\n    if (tokenApprovals[_tokenId] != address(0)) {\r\n      tokenApprovals[_tokenId] = address(0);\r\n      emit Approval(_owner, address(0), _tokenId);\r\n    }\r\n  }\r\n\r\n  /**\r\n  * @dev Internal function to add a token ID to the list of a given address\r\n  * @param _to address representing the new owner of the given token ID\r\n  * @param _tokenId uint256 ID of the token to be added to the tokens list of the given address\r\n  */\r\n  function addTokenTo(address _to, uint256 _tokenId) internal {\r\n    require(tokenOwner[_tokenId] == address(0));\r\n    tokenOwner[_tokenId] = _to;\r\n    ownedTokensCount[_to] = ownedTokensCount[_to].add(1);\r\n  }\r\n\r\n  /**\r\n  * @dev Internal function to remove a token ID from the list of a given address\r\n  * @param _from address representing the previous owner of the given token ID\r\n  * @param _tokenId uint256 ID of the token to be removed from the tokens list of the given address\r\n  */\r\n  function removeTokenFrom(address _from, uint256 _tokenId) internal {\r\n    require(ownerOf(_tokenId) == _from);\r\n    ownedTokensCount[_from] = ownedTokensCount[_from].sub(1);\r\n    tokenOwner[_tokenId] = address(0);\r\n  }\r\n\r\n  /**\r\n  * @dev Internal function to invoke `onERC721Received` on a target address\r\n  * @dev The call is not executed if the target address is not a contract\r\n  * @param _from address representing the previous owner of the given token ID\r\n  * @param _to target address that will receive the tokens\r\n  * @param _tokenId uint256 ID of the token to be transferred\r\n  * @param _data bytes optional data to send along with the call\r\n  * @return whether the call correctly returned the expected magic value\r\n  */\r\n  function checkAndCallSafeTransfer(\r\n    address _from,\r\n    address _to,\r\n    uint256 _tokenId,\r\n    bytes memory _data\r\n  )\r\n    internal\r\n    returns (bool)\r\n  {\r\n    if (!_to.isContract()) {\r\n      return true;\r\n    }\r\n    bytes4 retval = ERC721Receiver(_to).onERC721Received(_from, _tokenId, _data);\r\n    return (retval == ERC721_RECEIVED);\r\n  }\r\n}",
  "sourcePath": "D:/SoluLab/XinFin/Matic Nft Subgraph/contracts/ERC721BasicToken.sol",
  "compiler": {
    "name": "solc",
    "version": "0.4.24+commit.e67f0147.Emscripten.clang"
  },
  "schemaVersion": "3.4.1",
  "updatedAt": "2021-08-03T06:00:24.410Z",
  "devdoc": {
    "methods": {
      "approve(address,uint256)": {
        "details": "Approves another address to transfer the given token ID\rThe zero address indicates there is no approved address.\rThere can only be one approved address per token at a given time.\rCan only be called by the token owner or an approved operator.\r",
        "params": {
          "_to": "address to be approved for the given token ID\r",
          "_tokenId": "uint256 ID of the token to be approved\r"
        }
      },
      "balanceOf(address)": {
        "details": "Gets the balance of the specified address\r",
        "params": {
          "_owner": "address to query the balance of\r"
        },
        "return": "uint256 representing the amount owned by the passed address\r"
      },
      "exists(uint256)": {
        "details": "Returns whether the specified token exists\r",
        "params": {
          "_tokenId": "uint256 ID of the token to query the existance of\r"
        },
        "return": "whether the token exists\r"
      },
      "getApproved(uint256)": {
        "details": "Gets the approved address for a token ID, or zero if no address set\r",
        "params": {
          "_tokenId": "uint256 ID of the token to query the approval of\r"
        },
        "return": "address currently approved for a the given token ID\r"
      },
      "isApprovedForAll(address,address)": {
        "details": "Tells whether an operator is approved by a given owner\r",
        "params": {
          "_operator": "operator address which you want to query the approval of\r",
          "_owner": "owner address which you want to query the approval of\r"
        },
        "return": "bool whether the given operator is approved by the given owner\r"
      },
      "ownerOf(uint256)": {
        "details": "Gets the owner of the specified token ID\r",
        "params": {
          "_tokenId": "uint256 ID of the token to query the owner of\r"
        },
        "return": "owner address currently marked as the owner of the given token ID\r"
      },
      "safeTransferFrom(address,address,uint256)": {
        "details": "Safely transfers the ownership of a given token ID to another address\rIf the target address is a contract, it must implement `onERC721Received`,\r which is called upon a safe transfer, and return the magic value\r `bytes4(keccak256(\"onERC721Received(address,uint256,bytes)\"))`; otherwise,\r the transfer is reverted.\rRequires the msg sender to be the owner, approved, or operator\r",
        "params": {
          "_from": "current owner of the token\r",
          "_to": "address to receive the ownership of the given token ID\r",
          "_tokenId": "uint256 ID of the token to be transferred\r"
        }
      },
      "safeTransferFrom(address,address,uint256,bytes)": {
        "details": "Safely transfers the ownership of a given token ID to another address\rIf the target address is a contract, it must implement `onERC721Received`,\r which is called upon a safe transfer, and return the magic value\r `bytes4(keccak256(\"onERC721Received(address,uint256,bytes)\"))`; otherwise,\r the transfer is reverted.\rRequires the msg sender to be the owner, approved, or operator\r",
        "params": {
          "_data": "bytes data to send along with a safe transfer check\r",
          "_from": "current owner of the token\r",
          "_to": "address to receive the ownership of the given token ID\r",
          "_tokenId": "uint256 ID of the token to be transferred\r"
        }
      },
      "setApprovalForAll(address,bool)": {
        "details": "Sets or unsets the approval of a given operator\rAn operator is allowed to transfer all tokens of the sender on their behalf\r",
        "params": {
          "_approved": "representing the status of the approval to be set\r",
          "_to": "operator address to set the approval\r"
        }
      },
      "transferFrom(address,address,uint256)": {
        "details": "Transfers the ownership of a given token ID to another address\rUsage of this method is discouraged, use `safeTransferFrom` whenever possible\rRequires the msg sender to be the owner, approved, or operator\r",
        "params": {
          "_from": "current owner of the token\r",
          "_to": "address to receive the ownership of the given token ID\r",
          "_tokenId": "uint256 ID of the token to be transferred\r"
        }
      }
    },
    "title": "ERC721 Non-Fungible Token Standard basic implementation\r"
  },
  "userdoc": {
    "methods": {}
  }
}