{
  "contractName": "ERC721BidStorage",
  "abi": [
    {
      "constant": true,
      "inputs": [
        {
          "name": "",
          "type": "address"
        },
        {
          "name": "",
          "type": "uint256"
        },
        {
          "name": "",
          "type": "address"
        }
      ],
      "name": "bidIdByTokenAndBidder",
      "outputs": [
        {
          "name": "",
          "type": "bytes32"
        }
      ],
      "payable": false,
      "stateMutability": "view",
      "type": "function"
    },
    {
      "constant": true,
      "inputs": [
        {
          "name": "",
          "type": "address"
        },
        {
          "name": "",
          "type": "uint256"
        }
      ],
      "name": "bidCounterByToken",
      "outputs": [
        {
          "name": "",
          "type": "uint256"
        }
      ],
      "payable": false,
      "stateMutability": "view",
      "type": "function"
    },
    {
      "constant": true,
      "inputs": [],
      "name": "ONE_MILLION",
      "outputs": [
        {
          "name": "",
          "type": "uint256"
        }
      ],
      "payable": false,
      "stateMutability": "view",
      "type": "function"
    },
    {
      "constant": true,
      "inputs": [],
      "name": "ownerCutPerMillion",
      "outputs": [
        {
          "name": "",
          "type": "uint256"
        }
      ],
      "payable": false,
      "stateMutability": "view",
      "type": "function"
    },
    {
      "constant": true,
      "inputs": [],
      "name": "MAX_BID_DURATION",
      "outputs": [
        {
          "name": "",
          "type": "uint256"
        }
      ],
      "payable": false,
      "stateMutability": "view",
      "type": "function"
    },
    {
      "constant": true,
      "inputs": [
        {
          "name": "",
          "type": "bytes32"
        }
      ],
      "name": "bidIndexByBidId",
      "outputs": [
        {
          "name": "",
          "type": "uint256"
        }
      ],
      "payable": false,
      "stateMutability": "view",
      "type": "function"
    },
    {
      "constant": true,
      "inputs": [],
      "name": "MIN_BID_DURATION",
      "outputs": [
        {
          "name": "",
          "type": "uint256"
        }
      ],
      "payable": false,
      "stateMutability": "view",
      "type": "function"
    },
    {
      "anonymous": false,
      "inputs": [
        {
          "indexed": false,
          "name": "_id",
          "type": "bytes32"
        },
        {
          "indexed": true,
          "name": "_tokenAddress",
          "type": "address"
        },
        {
          "indexed": true,
          "name": "_tokenId",
          "type": "uint256"
        },
        {
          "indexed": true,
          "name": "_bidder",
          "type": "address"
        },
        {
          "indexed": false,
          "name": "_price",
          "type": "uint256"
        },
        {
          "indexed": false,
          "name": "_expiresAt",
          "type": "uint256"
        }
      ],
      "name": "BidCreated",
      "type": "event"
    },
    {
      "anonymous": false,
      "inputs": [
        {
          "indexed": false,
          "name": "_id",
          "type": "bytes32"
        },
        {
          "indexed": true,
          "name": "_tokenAddress",
          "type": "address"
        },
        {
          "indexed": true,
          "name": "_tokenId",
          "type": "uint256"
        },
        {
          "indexed": false,
          "name": "_bidder",
          "type": "address"
        },
        {
          "indexed": true,
          "name": "_seller",
          "type": "address"
        },
        {
          "indexed": false,
          "name": "_price",
          "type": "uint256"
        },
        {
          "indexed": false,
          "name": "_fee",
          "type": "uint256"
        }
      ],
      "name": "BidAccepted",
      "type": "event"
    },
    {
      "anonymous": false,
      "inputs": [
        {
          "indexed": false,
          "name": "_id",
          "type": "bytes32"
        },
        {
          "indexed": true,
          "name": "_tokenAddress",
          "type": "address"
        },
        {
          "indexed": true,
          "name": "_tokenId",
          "type": "uint256"
        },
        {
          "indexed": true,
          "name": "_bidder",
          "type": "address"
        }
      ],
      "name": "BidCancelled",
      "type": "event"
    },
    {
      "anonymous": false,
      "inputs": [
        {
          "indexed": false,
          "name": "_ownerCutPerMillion",
          "type": "uint256"
        }
      ],
      "name": "ChangedOwnerCutPerMillion",
      "type": "event"
    }
  ],
  "bytecode": "0x608060405234801561001057600080fd5b50610317806100206000396000f300608060405260043610610083576000357c0100000000000000000000000000000000000000000000000000000000900463ffffffff168063279dc1e41461008857806328bd196a146101115780639869b73614610172578063a01f79d41461019d578063a750066e146101c8578063b5eea644146101f3578063f88a121714610238575b600080fd5b34801561009457600080fd5b506100f3600480360381019080803573ffffffffffffffffffffffffffffffffffffffff16906020019092919080359060200190929190803573ffffffffffffffffffffffffffffffffffffffff169060200190929190505050610263565b60405180826000191660001916815260200191505060405180910390f35b34801561011d57600080fd5b5061015c600480360381019080803573ffffffffffffffffffffffffffffffffffffffff16906020019092919080359060200190929190505050610295565b6040518082815260200191505060405180910390f35b34801561017e57600080fd5b506101876102ba565b6040518082815260200191505060405180910390f35b3480156101a957600080fd5b506101b26102c1565b6040518082815260200191505060405180910390f35b3480156101d457600080fd5b506101dd6102c7565b6040518082815260200191505060405180910390f35b3480156101ff57600080fd5b5061022260048036038101908080356000191690602001909291905050506102ce565b6040518082815260200191505060405180910390f35b34801561024457600080fd5b5061024d6102e6565b6040518082815260200191505060405180910390f35b600360205282600052604060002060205281600052604060002060205280600052604060002060009250925050505481565b6001602052816000526040600020602052806000526040600020600091509150505481565b620f424081565b60045481565b62eff10081565b60026020528060005260406000206000915090505481565b603c815600a165627a7a7230582038e4c5798f43cab69f48e95298d1b4f3e09d1619f3680cad7fbf8c6963a54da40029",
  "source": "// SPDX-License-Identifier: MIT\r\n\r\npragma solidity ^0.4.24;\r\n\r\n\r\ncontract ERC721BidStorage {\r\n    // 182 days - 26 weeks - 6 months\r\n    uint256 public constant MAX_BID_DURATION = 182 days;\r\n    uint256 public constant MIN_BID_DURATION = 1 minutes;\r\n    uint256 public constant ONE_MILLION = 1000000;\r\n\r\n    struct Bid {\r\n        // Bid Id\r\n        bytes32 id;\r\n        // Bidder address\r\n        address bidder;\r\n        // ERC721 address\r\n        address tokenAddress;\r\n        // ERC721 token id\r\n        uint256 tokenId;\r\n        // Price for the bid in wei\r\n        uint256 price;\r\n        // Time when this bid ends\r\n        uint256 expiresAt;\r\n    }\r\n\r\n\r\n\r\n    // Bid by token address => token id => bid index => bid\r\n    mapping(address => mapping(uint256 => mapping(uint256 => Bid))) internal bidsByToken;\r\n    // Bid count by token address => token id => bid counts\r\n    mapping(address => mapping(uint256 => uint256)) public bidCounterByToken;\r\n    // Index of the bid at bidsByToken mapping by bid id => bid index\r\n    mapping(bytes32 => uint256) public bidIndexByBidId;\r\n    // Bid id by token address => token id => bidder address => bidId\r\n    mapping(address => mapping(uint256 => mapping(address => bytes32)))\r\n    public\r\n    bidIdByTokenAndBidder;\r\n\r\n\r\n    uint256 public ownerCutPerMillion;\r\n\r\n    // EVENTS\r\n    event BidCreated(\r\n      bytes32 _id,\r\n      address indexed _tokenAddress,\r\n      uint256 indexed _tokenId,\r\n      address indexed _bidder,\r\n      uint256 _price,\r\n      uint256 _expiresAt\r\n    );\r\n\r\n    event BidAccepted(\r\n      bytes32 _id,\r\n      address indexed _tokenAddress,\r\n      uint256 indexed _tokenId,\r\n      address _bidder,\r\n      address indexed _seller,\r\n      uint256 _price,\r\n      uint256 _fee\r\n    );\r\n\r\n    event BidCancelled(\r\n      bytes32 _id,\r\n      address indexed _tokenAddress,\r\n      uint256 indexed _tokenId,\r\n      address indexed _bidder\r\n    );\r\n\r\n    event ChangedOwnerCutPerMillion(uint256 _ownerCutPerMillion);\r\n}",
  "sourcePath": "D:/SoluLab/XinFin/Matic Nft Subgraph/contracts/ERC721BidStorage.sol",
  "compiler": {
    "name": "solc",
    "version": "0.4.24+commit.e67f0147.Emscripten.clang"
  },
  "schemaVersion": "3.4.1",
  "updatedAt": "2021-08-03T06:00:24.422Z",
  "devdoc": {
    "methods": {}
  },
  "userdoc": {
    "methods": {}
  }
}