{
  "contractName": "ERC721Bid",
  "abi": [
    {
      "constant": true,
      "inputs": [
        {
          "name": "",
          "type": "address"
        },
        {
          "name": "",
          "type": "uint256"
        },
        {
          "name": "",
          "type": "address"
        }
      ],
      "name": "bidIdByTokenAndBidder",
      "outputs": [
        {
          "name": "",
          "type": "bytes32"
        }
      ],
      "payable": false,
      "stateMutability": "view",
      "type": "function"
    },
    {
      "constant": true,
      "inputs": [
        {
          "name": "",
          "type": "address"
        },
        {
          "name": "",
          "type": "uint256"
        }
      ],
      "name": "bidCounterByToken",
      "outputs": [
        {
          "name": "",
          "type": "uint256"
        }
      ],
      "payable": false,
      "stateMutability": "view",
      "type": "function"
    },
    {
      "constant": true,
      "inputs": [],
      "name": "ONE_MILLION",
      "outputs": [
        {
          "name": "",
          "type": "uint256"
        }
      ],
      "payable": false,
      "stateMutability": "view",
      "type": "function"
    },
    {
      "constant": true,
      "inputs": [],
      "name": "ownerCutPerMillion",
      "outputs": [
        {
          "name": "",
          "type": "uint256"
        }
      ],
      "payable": false,
      "stateMutability": "view",
      "type": "function"
    },
    {
      "constant": true,
      "inputs": [],
      "name": "MAX_BID_DURATION",
      "outputs": [
        {
          "name": "",
          "type": "uint256"
        }
      ],
      "payable": false,
      "stateMutability": "view",
      "type": "function"
    },
    {
      "constant": true,
      "inputs": [
        {
          "name": "",
          "type": "bytes32"
        }
      ],
      "name": "bidIndexByBidId",
      "outputs": [
        {
          "name": "",
          "type": "uint256"
        }
      ],
      "payable": false,
      "stateMutability": "view",
      "type": "function"
    },
    {
      "constant": true,
      "inputs": [],
      "name": "MIN_BID_DURATION",
      "outputs": [
        {
          "name": "",
          "type": "uint256"
        }
      ],
      "payable": false,
      "stateMutability": "view",
      "type": "function"
    },
    {
      "inputs": [
        {
          "name": "_owner",
          "type": "address"
        },
        {
          "name": "_ownerCutPerMillion",
          "type": "uint256"
        }
      ],
      "payable": false,
      "stateMutability": "nonpayable",
      "type": "constructor"
    },
    {
      "anonymous": false,
      "inputs": [
        {
          "indexed": false,
          "name": "_id",
          "type": "bytes32"
        },
        {
          "indexed": true,
          "name": "_tokenAddress",
          "type": "address"
        },
        {
          "indexed": true,
          "name": "_tokenId",
          "type": "uint256"
        },
        {
          "indexed": true,
          "name": "_bidder",
          "type": "address"
        },
        {
          "indexed": false,
          "name": "_price",
          "type": "uint256"
        },
        {
          "indexed": false,
          "name": "_expiresAt",
          "type": "uint256"
        }
      ],
      "name": "BidCreated",
      "type": "event"
    },
    {
      "anonymous": false,
      "inputs": [
        {
          "indexed": false,
          "name": "_id",
          "type": "bytes32"
        },
        {
          "indexed": true,
          "name": "_tokenAddress",
          "type": "address"
        },
        {
          "indexed": true,
          "name": "_tokenId",
          "type": "uint256"
        },
        {
          "indexed": false,
          "name": "_bidder",
          "type": "address"
        },
        {
          "indexed": true,
          "name": "_seller",
          "type": "address"
        },
        {
          "indexed": false,
          "name": "_price",
          "type": "uint256"
        },
        {
          "indexed": false,
          "name": "_fee",
          "type": "uint256"
        }
      ],
      "name": "BidAccepted",
      "type": "event"
    },
    {
      "anonymous": false,
      "inputs": [
        {
          "indexed": false,
          "name": "_id",
          "type": "bytes32"
        },
        {
          "indexed": true,
          "name": "_tokenAddress",
          "type": "address"
        },
        {
          "indexed": true,
          "name": "_tokenId",
          "type": "uint256"
        },
        {
          "indexed": true,
          "name": "_bidder",
          "type": "address"
        }
      ],
      "name": "BidCancelled",
      "type": "event"
    },
    {
      "anonymous": false,
      "inputs": [
        {
          "indexed": false,
          "name": "_ownerCutPerMillion",
          "type": "uint256"
        }
      ],
      "name": "ChangedOwnerCutPerMillion",
      "type": "event"
    },
    {
      "constant": false,
      "inputs": [
        {
          "name": "_tokenAddress",
          "type": "address"
        },
        {
          "name": "_tokenId",
          "type": "uint256"
        },
        {
          "name": "_price",
          "type": "uint256"
        },
        {
          "name": "_duration",
          "type": "uint256"
        }
      ],
      "name": "placeBid",
      "outputs": [],
      "payable": true,
      "stateMutability": "payable",
      "type": "function"
    },
    {
      "constant": false,
      "inputs": [
        {
          "name": "_from",
          "type": "address"
        },
        {
          "name": "",
          "type": "address"
        },
        {
          "name": "_tokenId",
          "type": "uint256"
        },
        {
          "name": "_data",
          "type": "bytes"
        }
      ],
      "name": "onERC721Received",
      "outputs": [],
      "payable": true,
      "stateMutability": "payable",
      "type": "function"
    },
    {
      "constant": false,
      "inputs": [
        {
          "name": "_tokenAddresses",
          "type": "address[]"
        },
        {
          "name": "_tokenIds",
          "type": "uint256[]"
        },
        {
          "name": "_bidders",
          "type": "address[]"
        }
      ],
      "name": "removeExpiredBids",
      "outputs": [],
      "payable": false,
      "stateMutability": "nonpayable",
      "type": "function"
    },
    {
      "constant": false,
      "inputs": [
        {
          "name": "_tokenAddress",
          "type": "address"
        },
        {
          "name": "_tokenId",
          "type": "uint256"
        }
      ],
      "name": "cancelBid",
      "outputs": [],
      "payable": false,
      "stateMutability": "nonpayable",
      "type": "function"
    },
    {
      "constant": true,
      "inputs": [
        {
          "name": "_tokenAddress",
          "type": "address"
        },
        {
          "name": "_tokenId",
          "type": "uint256"
        },
        {
          "name": "_bidder",
          "type": "address"
        }
      ],
      "name": "getBidByBidder",
      "outputs": [
        {
          "name": "bidIndex",
          "type": "uint256"
        },
        {
          "name": "bidId",
          "type": "bytes32"
        },
        {
          "name": "bidder",
          "type": "address"
        },
        {
          "name": "price",
          "type": "uint256"
        },
        {
          "name": "expiresAt",
          "type": "uint256"
        }
      ],
      "payable": false,
      "stateMutability": "view",
      "type": "function"
    },
    {
      "constant": true,
      "inputs": [
        {
          "name": "_tokenAddress",
          "type": "address"
        },
        {
          "name": "_tokenId",
          "type": "uint256"
        },
        {
          "name": "_index",
          "type": "uint256"
        }
      ],
      "name": "getBidByToken",
      "outputs": [
        {
          "name": "",
          "type": "bytes32"
        },
        {
          "name": "",
          "type": "address"
        },
        {
          "name": "",
          "type": "uint256"
        },
        {
          "name": "",
          "type": "uint256"
        }
      ],
      "payable": false,
      "stateMutability": "view",
      "type": "function"
    },
    {
      "constant": false,
      "inputs": [
        {
          "name": "_ownerCutPerMillion",
          "type": "uint256"
        }
      ],
      "name": "setOwnerCutPerMillion",
      "outputs": [],
      "payable": false,
      "stateMutability": "nonpayable",
      "type": "function"
    }
  ],
  "bytecode": "0x60806040523480156200001157600080fd5b5060405160408062002ada833981018060405281019080805190602001909291908051906020019092919050505081600560006101000a81548173ffffffffffffffffffffffffffffffffffffffff021916908373ffffffffffffffffffffffffffffffffffffffff1602179055506200009a81620000a2640100000000026401000000009004565b5050620001e3565b3373ffffffffffffffffffffffffffffffffffffffff16600560009054906101000a900473ffffffffffffffffffffffffffffffffffffffff1673ffffffffffffffffffffffffffffffffffffffff16141515620000ff57600080fd5b620f424081101515620001a0576040517f08c379a000000000000000000000000000000000000000000000000000000000815260040180806020018281038252602d8152602001807f546865206f776e6572206375742073686f756c64206265206265747765656e2081526020017f3020616e64203939392c3939390000000000000000000000000000000000000081525060400191505060405180910390fd5b806004819055507ffa406a120a9e7f2b332bfb7a43d3bf1c3f079262202907a6b69c94b2821a02c66004546040518082815260200191505060405180910390a150565b6128e780620001f36000396000f3006080604052600436106100cf576000357c0100000000000000000000000000000000000000000000000000000000900463ffffffff168062f052f6146100d4578063150b7a02146101a557806319dad16d1461024b578063279dc1e41461027857806328bd196a1461030157806339b6b1e51461036257806342a6c4dd146103af57806381281be8146104635780639869b736146104b7578063a01f79d4146104e2578063a750066e1461050d578063b5eea64414610538578063ce1056cb1461057d578063f88a121714610669575b600080fd5b3480156100e057600080fd5b5061013f600480360381019080803573ffffffffffffffffffffffffffffffffffffffff16906020019092919080359060200190929190803573ffffffffffffffffffffffffffffffffffffffff169060200190929190505050610694565b6040518086815260200185600019166000191681526020018473ffffffffffffffffffffffffffffffffffffffff1673ffffffffffffffffffffffffffffffffffffffff1681526020018381526020018281526020019550505050505060405180910390f35b610249600480360381019080803573ffffffffffffffffffffffffffffffffffffffff169060200190929190803573ffffffffffffffffffffffffffffffffffffffff16906020019092919080359060200190929190803590602001908201803590602001908080601f0160208091040260200160405190810160405280939291908181526020018383808284378201915050505050509192919290505050610839565b005b34801561025757600080fd5b5061027660048036038101908080359060200190929190505050610d41565b005b34801561028457600080fd5b506102e3600480360381019080803573ffffffffffffffffffffffffffffffffffffffff16906020019092919080359060200190929190803573ffffffffffffffffffffffffffffffffffffffff169060200190929190505050610e80565b60405180826000191660001916815260200191505060405180910390f35b34801561030d57600080fd5b5061034c600480360381019080803573ffffffffffffffffffffffffffffffffffffffff16906020019092919080359060200190929190505050610eb2565b6040518082815260200191505060405180910390f35b34801561036e57600080fd5b506103ad600480360381019080803573ffffffffffffffffffffffffffffffffffffffff16906020019092919080359060200190929190505050610ed7565b005b3480156103bb57600080fd5b50610404600480360381019080803573ffffffffffffffffffffffffffffffffffffffff16906020019092919080359060200190929190803590602001909291905050506110d5565b6040518085600019166000191681526020018473ffffffffffffffffffffffffffffffffffffffff1673ffffffffffffffffffffffffffffffffffffffff16815260200183815260200182815260200194505050505060405180910390f35b6104b5600480360381019080803573ffffffffffffffffffffffffffffffffffffffff169060200190929190803590602001909291908035906020019092919080359060200190929190505050611116565b005b3480156104c357600080fd5b506104cc611a4f565b6040518082815260200191505060405180910390f35b3480156104ee57600080fd5b506104f7611a56565b6040518082815260200191505060405180910390f35b34801561051957600080fd5b50610522611a5c565b6040518082815260200191505060405180910390f35b34801561054457600080fd5b506105676004803603810190808035600019169060200190929190505050611a63565b6040518082815260200191505060405180910390f35b34801561058957600080fd5b50610667600480360381019080803590602001908201803590602001908080602002602001604051908101604052809392919081815260200183836020028082843782019150505050505091929192908035906020019082018035906020019080806020026020016040519081016040528093929190818152602001838360200280828437820191505050505050919291929080359060200190820180359060200190808060200260200160405190810160405280939291908181526020018383602002808284378201915050505050509192919290505050611a7b565b005b34801561067557600080fd5b5061067e611c2f565b6040518082815260200191505060405180910390f35b6000806000806000600360008973ffffffffffffffffffffffffffffffffffffffff1673ffffffffffffffffffffffffffffffffffffffff168152602001908152602001600020600088815260200190815260200160002060008773ffffffffffffffffffffffffffffffffffffffff1673ffffffffffffffffffffffffffffffffffffffff1681526020019081526020016000205493506002600085600019166000191681526020019081526020016000205494506107558888876110d5565b809450819550829650839750505050508273ffffffffffffffffffffffffffffffffffffffff168673ffffffffffffffffffffffffffffffffffffffff1614151561082e576040517f08c379a000000000000000000000000000000000000000000000000000000000815260040180806020018281038252602b8152602001807f42696464657220686173206e6f7420616e206163746976652062696420666f7281526020017f207468697320746f6b656e00000000000000000000000000000000000000000081525060400191505060405180910390fd5b939792965093509350565b600080610844612855565b600080600061085287611c34565b955060026000876000191660001916815260200190815260200160002054945061087d338987611ce6565b9350856000191684600001516000191614801561089e5750428460a0015110155b1515610912576040517f08c379a000000000000000000000000000000000000000000000000000000000815260040180806020018281038252600b8152602001807f496e76616c69642062696400000000000000000000000000000000000000000081525060200191505060405180910390fd5b836020015192508360800151915061092a8383611f06565b6000803373ffffffffffffffffffffffffffffffffffffffff1673ffffffffffffffffffffffffffffffffffffffff168152602001908152602001600020600089815260200190815260200160002060008681526020019081526020016000206000808201600090556001820160006101000a81549073ffffffffffffffffffffffffffffffffffffffff02191690556002820160006101000a81549073ffffffffffffffffffffffffffffffffffffffff0219169055600382016000905560048201600090556005820160009055505060026000876000191660001916815260200190815260200160002060009055600360003373ffffffffffffffffffffffffffffffffffffffff1673ffffffffffffffffffffffffffffffffffffffff168152602001908152602001600020600089815260200190815260200160002060008473ffffffffffffffffffffffffffffffffffffffff1673ffffffffffffffffffffffffffffffffffffffff16815260200190815260200160002060009055600160003373ffffffffffffffffffffffffffffffffffffffff1673ffffffffffffffffffffffffffffffffffffffff1681526020019081526020016000206000898152602001908152602001600020600090553373ffffffffffffffffffffffffffffffffffffffff166342842e0e30858b6040518463ffffffff167c0100000000000000000000000000000000000000000000000000000000028152600401808473ffffffffffffffffffffffffffffffffffffffff1673ffffffffffffffffffffffffffffffffffffffff1681526020018373ffffffffffffffffffffffffffffffffffffffff1673ffffffffffffffffffffffffffffffffffffffff1681526020018281526020019350505050600060405180830381600087803b158015610bd657600080fd5b505af1158015610bea573d6000803e3d6000fd5b505050506000905060006004541115610c2a57610c27620f4240610c1960045485611f9990919063ffffffff16565b611fd490919063ffffffff16565b90505b8973ffffffffffffffffffffffffffffffffffffffff166108fc610c578385611fea90919063ffffffff16565b9081150290604051600060405180830381858888f19350505050158015610c82573d6000803e3d6000fd5b508973ffffffffffffffffffffffffffffffffffffffff16883373ffffffffffffffffffffffffffffffffffffffff167f4e5ca6c6c06fa8d62f2930830e0d370de70f108bd89213de0b51141775e695bd898787876040518085600019166000191681526020018473ffffffffffffffffffffffffffffffffffffffff1673ffffffffffffffffffffffffffffffffffffffff16815260200183815260200182815260200194505050505060405180910390a450505050505050505050565b3373ffffffffffffffffffffffffffffffffffffffff16600560009054906101000a900473ffffffffffffffffffffffffffffffffffffffff1673ffffffffffffffffffffffffffffffffffffffff16141515610d9d57600080fd5b620f424081101515610e3d576040517f08c379a000000000000000000000000000000000000000000000000000000000815260040180806020018281038252602d8152602001807f546865206f776e6572206375742073686f756c64206265206265747765656e2081526020017f3020616e64203939392c3939390000000000000000000000000000000000000081525060400191505060405180910390fd5b806004819055507ffa406a120a9e7f2b332bfb7a43d3bf1c3f079262202907a6b69c94b2821a02c66004546040518082815260200191505060405180910390a150565b600360205282600052604060002060205281600052604060002060205280600052604060002060009250925050505481565b6001602052816000526040600020602052806000526040600020600091509150505481565b6000806000806000610efe8773ffffffffffffffffffffffffffffffffffffffff16612003565b1515610f98576040517f08c379a00000000000000000000000000000000000000000000000000000000081526004018080602001828103825260268152602001807f54686520546f6b656e20416464726573732073686f756c64206265206120636f81526020017f6e7472616374000000000000000000000000000000000000000000000000000081525060400191505060405180910390fd5b339450610fa6878787610694565b5093509350935093503373ffffffffffffffffffffffffffffffffffffffff168273ffffffffffffffffffffffffffffffffffffffff16141515611078576040517f08c379a00000000000000000000000000000000000000000000000000000000081526004018080602001828103825260258152602001807f4f6e6c792074686520626964206f776e65722063616e2063616e63656c20746881526020017f652062696400000000000000000000000000000000000000000000000000000081525060400191505060405180910390fd5b6110858484898989612016565b8473ffffffffffffffffffffffffffffffffffffffff166108fc829081150290604051600060405180830381858888f193505050501580156110cb573d6000803e3d6000fd5b5050505050505050565b6000806000806110e3612855565b6110ee888888611ce6565b90508060000151816020015182608001518360a0015194509450945094505093509350935093565b60008060008060008061113e8a73ffffffffffffffffffffffffffffffffffffffff16612003565b15156111d8576040517f08c379a00000000000000000000000000000000000000000000000000000000081526004018080602001828103825260268152602001807f54686520546f6b656e20416464726573732073686f756c64206265206120636f81526020017f6e7472616374000000000000000000000000000000000000000000000000000081525060400191505060405180910390fd5b339550600088111515611253576040517f08c379a000000000000000000000000000000000000000000000000000000000815260040180806020018281038252601d8152602001807f50726963652073686f756c6420626520626967676572207468616e203000000081525060200191505060405180910390fd5b348814151561126157600080fd5b61126b8689611f06565b603c871015151561130a576040517f08c379a000000000000000000000000000000000000000000000000000000000815260040180806020018281038252602b8152602001807f546865206269642073686f756c64206265206c617374206c6f6e67657220746881526020017f616e2061206d696e75746500000000000000000000000000000000000000000081525060400191505060405180910390fd5b62eff10087111515156113ab576040517f08c379a00000000000000000000000000000000000000000000000000000000081526004018080602001828103825260298152602001807f546865206269642063616e206e6f74206c617374206c6f6e676572207468616e81526020017f2036206d6f6e746873000000000000000000000000000000000000000000000081525060400191505060405180910390fd5b8973ffffffffffffffffffffffffffffffffffffffff16636352211e8a6040518263ffffffff167c010000000000000000000000000000000000000000000000000000000002815260040180828152602001915050602060405180830381600087803b15801561141a57600080fd5b505af115801561142e573d6000803e3d6000fd5b505050506040513d602081101561144457600080fd5b81019080805190602001909291905050509450600073ffffffffffffffffffffffffffffffffffffffff168573ffffffffffffffffffffffffffffffffffffffff16141580156114c057508573ffffffffffffffffffffffffffffffffffffffff168573ffffffffffffffffffffffffffffffffffffffff1614155b151561155a576040517f08c379a00000000000000000000000000000000000000000000000000000000081526004018080602001828103825260388152602001807f54686520746f6b656e2073686f756c64206861766520616e206f776e6572206481526020017f6966666572656e742066726f6d207468652073656e646572000000000000000081525060400191505060405180910390fd5b61156d87426124c790919063ffffffff16565b935042868b8b8b8b604051602001808781526020018673ffffffffffffffffffffffffffffffffffffffff1673ffffffffffffffffffffffffffffffffffffffff166c010000000000000000000000000281526014018573ffffffffffffffffffffffffffffffffffffffff1673ffffffffffffffffffffffffffffffffffffffff166c0100000000000000000000000002815260140184815260200183815260200182815260200196505050505050506040516020818303038152906040526040518082805190602001908083835b602083101515611662578051825260208201915060208101905060208303925061163d565b6001836020036101000a0380198251168184511680821785525050505050509050019150506040518091039020925061169c8a8a886124e5565b156116de576116ac8a8a88610694565b909150905050809250819350505060026000826000191660001916815260200190815260200160002060009055611792565b600160008b73ffffffffffffffffffffffffffffffffffffffff1673ffffffffffffffffffffffffffffffffffffffff16815260200190815260200160002060008a8152602001908152602001600020549150600160008b73ffffffffffffffffffffffffffffffffffffffff1673ffffffffffffffffffffffffffffffffffffffff16815260200190815260200160002060008a8152602001908152602001600020600081548092919060010191905055505b82600360008c73ffffffffffffffffffffffffffffffffffffffff1673ffffffffffffffffffffffffffffffffffffffff16815260200190815260200160002060008b815260200190815260200160002060008873ffffffffffffffffffffffffffffffffffffffff1673ffffffffffffffffffffffffffffffffffffffff1681526020019081526020016000208160001916905550816002600085600019166000191681526020019081526020016000208190555060c060405190810160405280846000191681526020018773ffffffffffffffffffffffffffffffffffffffff1681526020018b73ffffffffffffffffffffffffffffffffffffffff1681526020018a8152602001898152602001858152506000808c73ffffffffffffffffffffffffffffffffffffffff1673ffffffffffffffffffffffffffffffffffffffff16815260200190815260200160002060008b815260200190815260200160002060008481526020019081526020016000206000820151816000019060001916905560208201518160010160006101000a81548173ffffffffffffffffffffffffffffffffffffffff021916908373ffffffffffffffffffffffffffffffffffffffff16021790555060408201518160020160006101000a81548173ffffffffffffffffffffffffffffffffffffffff021916908373ffffffffffffffffffffffffffffffffffffffff160217905550606082015181600301556080820151816004015560a082015181600501559050508573ffffffffffffffffffffffffffffffffffffffff16898b73ffffffffffffffffffffffffffffffffffffffff167fae7b5aee7763f3e7771076de8f7b61accb70ad42245fee23308e19c8bcd518e4868c89604051808460001916600019168152602001838152602001828152602001935050505060405180910390a450505050505050505050565b620f424081565b60045481565b62eff10081565b60026020528060005260406000206000915090505481565b60008084519150835182141515611b20576040517f08c379a000000000000000000000000000000000000000000000000000000000815260040180806020018281038252602c8152602001807f506172616d65746572206172726179732073686f756c6420686176652074686581526020017f2073616d65206c656e677468000000000000000000000000000000000000000081525060400191505060405180910390fd5b825182141515611bbe576040517f08c379a000000000000000000000000000000000000000000000000000000000815260040180806020018281038252602c8152602001807f506172616d65746572206172726179732073686f756c6420686176652074686581526020017f2073616d65206c656e677468000000000000000000000000000000000000000081525060400191505060405180910390fd5b600090505b81811015611c2857611c1b8582815181101515611bdc57fe5b906020019060200201518583815181101515611bf457fe5b906020019060200201518584815181101515611c0c57fe5b9060200190602002015161278b565b8080600101915050611bc3565b5050505050565b603c81565b60008060208351141515611cd6576040517f08c379a00000000000000000000000000000000000000000000000000000000081526004018080602001828103825260228152602001807f54686520646174612073686f756c64206265203332206279746573206c656e6781526020017f746800000000000000000000000000000000000000000000000000000000000081525060400191505060405180910390fd5b6020830151905080915050919050565b611cee612855565b600160008573ffffffffffffffffffffffffffffffffffffffff1673ffffffffffffffffffffffffffffffffffffffff16815260200190815260200160002060008481526020019081526020016000205482101515611db5576040517f08c379a000000000000000000000000000000000000000000000000000000000815260040180806020018281038252600d8152602001807f496e76616c696420696e6465780000000000000000000000000000000000000081525060200191505060405180910390fd5b6000808573ffffffffffffffffffffffffffffffffffffffff1673ffffffffffffffffffffffffffffffffffffffff1681526020019081526020016000206000848152602001908152602001600020600083815260200190815260200160002060c060405190810160405290816000820154600019166000191681526020016001820160009054906101000a900473ffffffffffffffffffffffffffffffffffffffff1673ffffffffffffffffffffffffffffffffffffffff1673ffffffffffffffffffffffffffffffffffffffff1681526020016002820160009054906101000a900473ffffffffffffffffffffffffffffffffffffffff1673ffffffffffffffffffffffffffffffffffffffff1673ffffffffffffffffffffffffffffffffffffffff168152602001600382015481526020016004820154815260200160058201548152505090509392505050565b808273ffffffffffffffffffffffffffffffffffffffff163110151515611f95576040517f08c379a00000000000000000000000000000000000000000000000000000000081526004018080602001828103825260128152602001807f496e73756666696369656e742066756e6473000000000000000000000000000081525060200191505060405180910390fd5b5050565b6000806000841415611fae5760009150611fcd565b8284029050828482811515611fbf57fe5b04141515611fc957fe5b8091505b5092915050565b60008183811515611fe157fe5b04905092915050565b6000828211151515611ff857fe5b818303905092915050565b600080823b905060008111915050919050565b60008060026000876000191660001916815260200190815260200160002060009055600360008673ffffffffffffffffffffffffffffffffffffffff1673ffffffffffffffffffffffffffffffffffffffff168152602001908152602001600020600085815260200190815260200160002060008473ffffffffffffffffffffffffffffffffffffffff1673ffffffffffffffffffffffffffffffffffffffff1681526020019081526020016000206000905561212c60018060008873ffffffffffffffffffffffffffffffffffffffff1673ffffffffffffffffffffffffffffffffffffffff168152602001908152602001600020600087815260200190815260200160002054611fea90919063ffffffff16565b9150868214151561231e576000808673ffffffffffffffffffffffffffffffffffffffff1673ffffffffffffffffffffffffffffffffffffffff168152602001908152602001600020600085815260200190815260200160002060008381526020019081526020016000209050806000808773ffffffffffffffffffffffffffffffffffffffff1673ffffffffffffffffffffffffffffffffffffffff16815260200190815260200160002060008681526020019081526020016000206000898152602001908152602001600020600082015481600001906000191690556001820160009054906101000a900473ffffffffffffffffffffffffffffffffffffffff168160010160006101000a81548173ffffffffffffffffffffffffffffffffffffffff021916908373ffffffffffffffffffffffffffffffffffffffff1602179055506002820160009054906101000a900473ffffffffffffffffffffffffffffffffffffffff168160020160006101000a81548173ffffffffffffffffffffffffffffffffffffffff021916908373ffffffffffffffffffffffffffffffffffffffff1602179055506003820154816003015560048201548160040155600582015481600501559050508660026000836000015460001916600019168152602001908152602001600020819055505b6000808673ffffffffffffffffffffffffffffffffffffffff1673ffffffffffffffffffffffffffffffffffffffff168152602001908152602001600020600085815260200190815260200160002060008381526020019081526020016000206000808201600090556001820160006101000a81549073ffffffffffffffffffffffffffffffffffffffff02191690556002820160006101000a81549073ffffffffffffffffffffffffffffffffffffffff02191690556003820160009055600482016000905560058201600090555050600160008673ffffffffffffffffffffffffffffffffffffffff1673ffffffffffffffffffffffffffffffffffffffff168152602001908152602001600020600085815260200190815260200160002060008154809291906001900391905055508273ffffffffffffffffffffffffffffffffffffffff16848673ffffffffffffffffffffffffffffffffffffffff167fc43098075c34b8b92567bd49f08f55e397ebf82dd82072e3eb1be525c4506f5f8960405180826000191660001916815260200191505060405180910390a450505050505050565b60008082840190508381101515156124db57fe5b8091505092915050565b60008060006124f2612855565b600360008873ffffffffffffffffffffffffffffffffffffffff1673ffffffffffffffffffffffffffffffffffffffff168152602001908152602001600020600087815260200190815260200160002060008673ffffffffffffffffffffffffffffffffffffffff1673ffffffffffffffffffffffffffffffffffffffff168152602001908152602001600020549250600260008460001916600019168152602001908152602001600020549150600160008873ffffffffffffffffffffffffffffffffffffffff1673ffffffffffffffffffffffffffffffffffffffff16815260200190815260200160002060008781526020019081526020016000205482101561277c576000808873ffffffffffffffffffffffffffffffffffffffff1673ffffffffffffffffffffffffffffffffffffffff1681526020019081526020016000206000878152602001908152602001600020600083815260200190815260200160002060c060405190810160405290816000820154600019166000191681526020016001820160009054906101000a900473ffffffffffffffffffffffffffffffffffffffff1673ffffffffffffffffffffffffffffffffffffffff1673ffffffffffffffffffffffffffffffffffffffff1681526020016002820160009054906101000a900473ffffffffffffffffffffffffffffffffffffffff1673ffffffffffffffffffffffffffffffffffffffff1673ffffffffffffffffffffffffffffffffffffffff168152602001600382015481526020016004820154815260200160058201548152505090508473ffffffffffffffffffffffffffffffffffffffff16816020015173ffffffffffffffffffffffffffffffffffffffff16149350612781565b600093505b5050509392505050565b600080600061279b868686610694565b94505050925092504281101515612840576040517f08c379a00000000000000000000000000000000000000000000000000000000081526004018080602001828103825260238152602001807f5468652062696420746f2072656d6f76652073686f756c64206265206578706981526020017f726564000000000000000000000000000000000000000000000000000000000081525060400191505060405180910390fd5b61284d8383888888612016565b505050505050565b60c06040519081016040528060008019168152602001600073ffffffffffffffffffffffffffffffffffffffff168152602001600073ffffffffffffffffffffffffffffffffffffffff16815260200160008152602001600081526020016000815250905600a165627a7a72305820bc337b718e1af765671a09e33a2f008dd27693557e1818f24f1390cb24410e6c0029",
  "source": "pragma solidity ^0.4.24;\r\n\r\n\r\nimport \"./NFT.sol\";\r\n\r\nimport \"./SafeMath.sol\";\r\nimport \"./AddressUtils.sol\";\r\n\r\nimport \"./ERC721BidStorage.sol\";\r\n\r\n\r\ncontract ERC721Bid is ERC721BidStorage {\r\n    using SafeMath for uint256;\r\n    using AddressUtils for address;\r\n    address BiddingOwner;\r\n    /**\r\n    * @dev Constructor of the contract.\r\n    * @param _owner - address of the owner for the contract\r\n    */\r\n    constructor(address _owner, uint256 _ownerCutPerMillion) public{\r\n\t// Set owner\r\n        BiddingOwner = _owner;\r\n        \r\n\t// Fee init\r\n        setOwnerCutPerMillion(_ownerCutPerMillion);\r\n    }\r\n    \r\n   /**\r\n    * @dev Guarantees msg.sender is owner of the Marketplace\r\n    */\r\n    modifier isOwner() {\r\n        require(BiddingOwner == msg.sender);\r\n        _;\r\n    }\r\n    \r\n    /**\r\n    * @dev Place a bid for an ERC721 token\r\n    * @notice Tokens can have multiple bids by different users.\r\n    * Users can have only one bid per token.\r\n    * If the user places a bid and has an active bid for that token,\r\n    * the older one will be replaced with the new one.\r\n    * This function would be called by the bidder : Transfer msg.value to contract address\r\n    * @param _tokenAddress - address of the ERC721 token\r\n    * @param _tokenId - uint256 of the token id\r\n    * @param _price - uint256 of the price for the bid\r\n    * @param _duration - uint256 of the duration in seconds for the bid\r\n    */\r\n    function placeBid(\r\n        address _tokenAddress,\r\n        uint256 _tokenId,\r\n        uint256 _price,\r\n        uint256 _duration\r\n    )\r\n    public payable\r\n    {\r\n        require(_tokenAddress.isContract(), \"The Token Address should be a contract\");\r\n\r\n        address sender = msg.sender;\r\n\r\n        require(_price > 0, \"Price should be bigger than 0\");\r\n        require(_price == msg.value);\r\n\r\n        _requireBidderBalance(sender, _price);\r\n\r\n        require(\r\n            _duration >= MIN_BID_DURATION,\r\n            \"The bid should be last longer than a minute\"\r\n        );\r\n\r\n        require(\r\n            _duration <= MAX_BID_DURATION,\r\n            \"The bid can not last longer than 6 months\"\r\n        );\r\n\r\n        address tokenOwner = NFT(_tokenAddress).ownerOf(_tokenId);\r\n        require(\r\n            tokenOwner != address(0) && tokenOwner != sender,\r\n            \"The token should have an owner different from the sender\"\r\n        );\r\n\r\n        uint256 expiresAt = block.timestamp.add(_duration);\r\n\r\n        bytes32 bidId = keccak256(\r\n            abi.encodePacked(\r\n                block.timestamp,\r\n                sender,\r\n                _tokenAddress,\r\n                _tokenId,\r\n                _price,\r\n                _duration\r\n            )\r\n        );\r\n\r\n        uint256 bidIndex;\r\n\r\n        if (_bidderHasABid(_tokenAddress, _tokenId, sender)) {\r\n            bytes32 oldBidId;\r\n            (bidIndex, oldBidId,,,) = getBidByBidder(_tokenAddress, _tokenId, sender);\r\n\r\n            // Delete old bid reference\r\n            delete bidIndexByBidId[oldBidId];\r\n        } else {\r\n            // Use the bid counter to assign the index if there is not an active bid.\r\n            bidIndex = bidCounterByToken[_tokenAddress][_tokenId];\r\n            // Increase bid counter\r\n            bidCounterByToken[_tokenAddress][_tokenId]++;\r\n        }\r\n\r\n        // Set bid references\r\n        bidIdByTokenAndBidder[_tokenAddress][_tokenId][sender] = bidId;\r\n        bidIndexByBidId[bidId] = bidIndex;\r\n\r\n        // Save Bid\r\n        bidsByToken[_tokenAddress][_tokenId][bidIndex] = Bid({\r\n            id: bidId,\r\n            bidder: sender,\r\n            tokenAddress: _tokenAddress,\r\n            tokenId: _tokenId,\r\n            price: _price,\r\n            expiresAt: expiresAt\r\n        });\r\n\r\n        emit BidCreated(\r\n            bidId,\r\n            _tokenAddress,\r\n            _tokenId,\r\n            sender,\r\n            _price,\r\n            expiresAt\r\n        );\r\n    }\r\n\r\n    /**\r\n    * @dev Used as the only way to accept a bid.\r\n    * The token owner should send the token to this contract using safeTransferFrom.\r\n    * The last parameter (bytes) should be the bid id.\r\n    * @notice  The ERC721 smart contract calls this function on the recipient\r\n    * after a `safetransfer`. This function MAY throw to revert and reject the\r\n    * transfer. Return of other than the magic value MUST result in the\r\n    * transaction being reverted.\r\n    * Note:\r\n    * Contract address is always the message sender.\r\n    * This method should be seen as 'acceptBid'.\r\n    * It validates that the bid id matches an active bid for the bid token.\r\n    * @param _from The address which previously owned the token\r\n    * @param _tokenId The NFT identifier which is being transferred\r\n    * @param _data Additional data with no specified format\r\n    */\r\n\r\n    function onERC721Received(\r\n        address _from,\r\n        address /*_to*/,\r\n        uint256 _tokenId,\r\n        bytes memory _data\r\n    )\r\n        public payable\r\n    {\r\n        bytes32 bidId = _bytesToBytes32(_data);\r\n        uint256 bidIndex = bidIndexByBidId[bidId];\r\n\r\n        Bid memory bid = _getBid(msg.sender, _tokenId, bidIndex);\r\n\r\n        // Check if the bid is valid.\r\n        require( bid.id == bidId && bid.expiresAt >= block.timestamp,\r\n            \"Invalid bid\"\r\n        );\r\n\r\n        address bidder = bid.bidder;\r\n        uint256 price = bid.price;\r\n\r\n        // Check if bidder has funds\r\n        _requireBidderBalance(bidder, price);\r\n\r\n        // Delete bid references from contract storage\r\n        delete bidsByToken[msg.sender][_tokenId][bidIndex];\r\n        delete bidIndexByBidId[bidId];\r\n        delete bidIdByTokenAndBidder[msg.sender][_tokenId][bidder];\r\n\r\n        // Reset bid counter to invalidate other bids placed for the token\r\n        delete bidCounterByToken[msg.sender][_tokenId];\r\n\r\n        // Transfer token to bidder\r\n        NFT(msg.sender).safeTransferFrom(\r\n          address(this),\r\n          bidder,\r\n          _tokenId\r\n        );\r\n        \r\n        uint256 saleShareAmount = 0;\r\n        if (ownerCutPerMillion > 0) {\r\n            // Calculate sale share\r\n            saleShareAmount = price.mul(ownerCutPerMillion).div(ONE_MILLION);\r\n        }\r\n\r\n        // tranfer from contract address to _from\r\n        _from.transfer(price.sub(saleShareAmount));\r\n\r\n        emit BidAccepted(\r\n            bidId,\r\n            msg.sender,\r\n            _tokenId,\r\n            bidder,\r\n            _from,\r\n            price,\r\n            saleShareAmount\r\n        );\r\n\r\n    }\r\n\r\n    /**\r\n    * @dev Remove expired bids\r\n    * @param _tokenAddresses - address[] of the ERC721 tokens\r\n    * @param _tokenIds - uint256[] of the token ids\r\n    * @param _bidders - address[] of the bidders\r\n    */\r\n    function removeExpiredBids(address[] memory _tokenAddresses, uint256[] memory _tokenIds, address[] memory _bidders)\r\n    public\r\n    {\r\n        uint256 loopLength = _tokenAddresses.length;\r\n\r\n        require(loopLength == _tokenIds.length, \"Parameter arrays should have the same length\");\r\n        require(loopLength == _bidders.length, \"Parameter arrays should have the same length\");\r\n\r\n        for (uint256 i = 0; i < loopLength; i++) {\r\n            _removeExpiredBid(_tokenAddresses[i], _tokenIds[i], _bidders[i]);\r\n        }\r\n    }\r\n\r\n    /**\r\n    * @dev Remove expired bid\r\n    * @param _tokenAddress - address of the ERC721 token\r\n    * @param _tokenId - uint256 of the token id\r\n    * @param _bidder - address of the bidder\r\n    */\r\n    function _removeExpiredBid(address _tokenAddress, uint256 _tokenId, address _bidder)\r\n    internal\r\n    {\r\n        (uint256 bidIndex, bytes32 bidId,,,uint256 expiresAt) = getBidByBidder(\r\n            _tokenAddress,\r\n            _tokenId,\r\n            _bidder\r\n        );\r\n\r\n        require(expiresAt < block.timestamp, \"The bid to remove should be expired\");\r\n\r\n        _cancelBid(\r\n            bidIndex,\r\n            bidId,\r\n            _tokenAddress,\r\n            _tokenId,\r\n            _bidder\r\n        );\r\n    }\r\n\r\n    /**\r\n    * @dev Cancel a bid for an ERC721 token\r\n    * @param _tokenAddress - address of the ERC721 token\r\n    * @param _tokenId - uint256 of the token id\r\n    */\r\n    function cancelBid(address _tokenAddress, uint256 _tokenId) public {\r\n        \r\n        require(_tokenAddress.isContract(), \"The Token Address should be a contract\");\r\n        address sender = msg.sender;\r\n        // Get active bid\r\n        (uint256 bidIndex, bytes32 bidId,address bidder,uint256 price,) = getBidByBidder(\r\n            _tokenAddress,\r\n            _tokenId,\r\n            sender\r\n        );\r\n        \r\n        require(bidder == msg.sender, \"Only the bid owner can cancel the bid\");\r\n        \r\n        _cancelBid(\r\n            bidIndex,\r\n            bidId,\r\n            _tokenAddress,\r\n            _tokenId,\r\n            sender\r\n        );\r\n        \r\n        //withdraw the bid amount\r\n        sender.transfer(price);\r\n    }\r\n\r\n    /**\r\n    * @dev Cancel a bid for an ERC721 token\r\n    * @param _bidIndex - uint256 of the index of the bid\r\n    * @param _bidId - bytes32 of the bid id\r\n    * @param _tokenAddress - address of the ERC721 token\r\n    * @param _tokenId - uint256 of the token id\r\n    * @param _bidder - address of the bidder\r\n    */\r\n    function _cancelBid(\r\n        uint256 _bidIndex,\r\n        bytes32 _bidId,\r\n        address _tokenAddress,\r\n        uint256 _tokenId,\r\n        address _bidder\r\n    )\r\n        internal\r\n    {\r\n        // Delete bid references\r\n        delete bidIndexByBidId[_bidId];\r\n        delete bidIdByTokenAndBidder[_tokenAddress][_tokenId][_bidder];\r\n\r\n        // Check if the bid is at the end of the mapping\r\n        uint256 lastBidIndex = bidCounterByToken[_tokenAddress][_tokenId].sub(1);\r\n        if (lastBidIndex != _bidIndex) {\r\n            // Move last bid to the removed place\r\n            Bid storage lastBid = bidsByToken[_tokenAddress][_tokenId][lastBidIndex];\r\n            bidsByToken[_tokenAddress][_tokenId][_bidIndex] = lastBid;\r\n            bidIndexByBidId[lastBid.id] = _bidIndex;\r\n        }\r\n\r\n        // Delete empty index\r\n        delete bidsByToken[_tokenAddress][_tokenId][lastBidIndex];\r\n\r\n        // Decrease bids counter\r\n        bidCounterByToken[_tokenAddress][_tokenId]--;\r\n\r\n        // emit BidCancelled event\r\n        emit BidCancelled(\r\n            _bidId,\r\n            _tokenAddress,\r\n            _tokenId,\r\n            _bidder\r\n        );\r\n    }\r\n\r\n     /**\r\n    * @dev Check if the bidder has a bid for an specific token.\r\n    * @param _tokenAddress - address of the ERC721 token\r\n    * @param _tokenId - uint256 of the token id\r\n    * @param _bidder - address of the bidder\r\n    * @return bool whether the bidder has an active bid\r\n    */\r\n    function _bidderHasABid(address _tokenAddress, uint256 _tokenId, address _bidder)\r\n        internal\r\n        view\r\n        returns (bool)\r\n    {\r\n        bytes32 bidId = bidIdByTokenAndBidder[_tokenAddress][_tokenId][_bidder];\r\n        uint256 bidIndex = bidIndexByBidId[bidId];\r\n        // Bid index should be inside bounds\r\n        if (bidIndex < bidCounterByToken[_tokenAddress][_tokenId]) {\r\n            Bid memory bid = bidsByToken[_tokenAddress][_tokenId][bidIndex];\r\n            return bid.bidder == _bidder;\r\n        }\r\n        return false;\r\n    }\r\n\r\n    /**\r\n    * @dev Get the active bid id and index by a bidder and an specific token.\r\n    * @notice If the bidder has not a valid bid, the transaction will be reverted.\r\n    * @param _tokenAddress - address of the ERC721 token\r\n    * @param _tokenId - uint256 of the token id\r\n    * @param _bidder - address of the bidder\r\n    * @return bidIndex - uint256 of the bid index to be used within bidsByToken mapping\r\n    * @return bidId - bytes32 of the bid id\r\n    * @return bidder - address of the bidder address\r\n    * @return price - uint256 of the bid price\r\n    * @return expiresAt - uint256 of the expiration time\r\n    */\r\n    function getBidByBidder(address _tokenAddress, uint256 _tokenId, address _bidder)\r\n        public\r\n        view\r\n        returns (\r\n            uint256 bidIndex,\r\n            bytes32 bidId,\r\n            address bidder,\r\n            uint256 price,\r\n            uint256 expiresAt\r\n        )\r\n    {\r\n        bidId = bidIdByTokenAndBidder[_tokenAddress][_tokenId][_bidder];\r\n        bidIndex = bidIndexByBidId[bidId];\r\n        (bidId, bidder, price, expiresAt) = getBidByToken(_tokenAddress, _tokenId, bidIndex);\r\n        if (_bidder != bidder) {\r\n            revert(\"Bidder has not an active bid for this token\");\r\n        }\r\n    }\r\n\r\n    /**\r\n    * @dev Get an ERC721 token bid by index\r\n    * @param _tokenAddress - address of the ERC721 token\r\n    * @param _tokenId - uint256 of the token id\r\n    * @param _index - uint256 of the index\r\n    * @return bytes32 of the bid id\r\n    * @return address of the bidder address\r\n    * @return uint256 of the bid price\r\n    * @return uint256 of the expiration time\r\n    */\r\n    function getBidByToken(address _tokenAddress, uint256 _tokenId, uint256 _index)\r\n        public\r\n        view\r\n        returns (bytes32, address, uint256, uint256)\r\n    {\r\n\r\n        Bid memory bid = _getBid(_tokenAddress, _tokenId, _index);\r\n        return (\r\n            bid.id,\r\n            bid.bidder,\r\n            bid.price,\r\n            bid.expiresAt\r\n        );\r\n    }\r\n\r\n    /**\r\n    * @dev Get the active bid id and index by a bidder and an specific token.\r\n    * @notice If the index is not valid, it will revert.\r\n    * @param _tokenAddress - address of the ERC721 token\r\n    * @param _tokenId - uint256 of the index\r\n    * @param _index - uint256 of the index\r\n    * @return Bid\r\n    */\r\n    function _getBid(address _tokenAddress, uint256 _tokenId, uint256 _index)\r\n        internal\r\n        view\r\n        returns (Bid memory)\r\n    {\r\n        require(_index < bidCounterByToken[_tokenAddress][_tokenId], \"Invalid index\");\r\n        return bidsByToken[_tokenAddress][_tokenId][_index];\r\n    }\r\n\r\n    /**\r\n    * @dev Sets the share cut for the owner of the contract that's\r\n    * charged to the seller on a successful sale\r\n    * @param _ownerCutPerMillion - Share amount, from 0 to 999,999\r\n    */\r\n    function setOwnerCutPerMillion(uint256 _ownerCutPerMillion) public isOwner {\r\n        require(_ownerCutPerMillion < ONE_MILLION, \"The owner cut should be between 0 and 999,999\");\r\n\r\n        ownerCutPerMillion = _ownerCutPerMillion;\r\n        emit ChangedOwnerCutPerMillion(ownerCutPerMillion);\r\n    }\r\n\r\n    /**\r\n    * @dev Convert bytes to bytes32\r\n    * @param _data - bytes\r\n    * @return bytes32\r\n    */\r\n    function _bytesToBytes32(bytes memory _data) internal pure returns (bytes32) {\r\n        require(_data.length == 32, \"The data should be 32 bytes length\");\r\n\r\n        bytes32 bidId;\r\n        // solium-disable-next-line security/no-inline-assembly\r\n        assembly {\r\n            bidId := mload(add(_data, 0x20))\r\n        }\r\n        return bidId;\r\n    }\r\n\r\n    /**\r\n    * @dev Check if the bidder has balance and the contract has enough allowance\r\n    * to use bidder MANA on his belhalf\r\n    * @param _bidder - address of bidder\r\n    * @param _amount - uint256 of amount\r\n    */\r\n    function _requireBidderBalance(address _bidder, uint256 _amount) internal view {\r\n        require(\r\n            _bidder.balance >= _amount,\r\n            \"Insufficient funds\"\r\n        );\r\n    }\r\n}",
  "sourcePath": "D:/SoluLab/XinFin/Matic Nft Subgraph/contracts/ERC721Bid.sol",
  "compiler": {
    "name": "solc",
    "version": "0.4.24+commit.e67f0147.Emscripten.clang"
  },
  "schemaVersion": "3.4.1",
  "updatedAt": "2021-08-07T05:10:45.072Z",
  "networkType": "ethereum",
  "devdoc": {
    "methods": {
      "cancelBid(address,uint256)": {
        "details": "Cancel a bid for an ERC721 token\r",
        "params": {
          "_tokenAddress": "- address of the ERC721 token\r",
          "_tokenId": "- uint256 of the token id\r"
        }
      },
      "getBidByBidder(address,uint256,address)": {
        "details": "Get the active bid id and index by a bidder and an specific token.\r",
        "params": {
          "_bidder": "- address of the bidder\r",
          "_tokenAddress": "- address of the ERC721 token\r",
          "_tokenId": "- uint256 of the token id\r"
        },
        "return": "bidIndex - uint256 of the bid index to be used within bidsByToken mapping\rbidId - bytes32 of the bid id\rbidder - address of the bidder address\rprice - uint256 of the bid price\rexpiresAt - uint256 of the expiration time\r"
      },
      "getBidByToken(address,uint256,uint256)": {
        "details": "Get an ERC721 token bid by index\r",
        "params": {
          "_index": "- uint256 of the index\r",
          "_tokenAddress": "- address of the ERC721 token\r",
          "_tokenId": "- uint256 of the token id\r"
        },
        "return": "bytes32 of the bid id\raddress of the bidder address\ruint256 of the bid price\ruint256 of the expiration time\r"
      },
      "onERC721Received(address,address,uint256,bytes)": {
        "details": "Used as the only way to accept a bid.\r The token owner should send the token to this contract using safeTransferFrom.\r The last parameter (bytes) should be the bid id.\r",
        "params": {
          "_data": "Additional data with no specified format\r",
          "_from": "The address which previously owned the token\r",
          "_tokenId": "The NFT identifier which is being transferred\r"
        }
      },
      "placeBid(address,uint256,uint256,uint256)": {
        "details": "Place a bid for an ERC721 token\r",
        "params": {
          "_duration": "- uint256 of the duration in seconds for the bid\r",
          "_price": "- uint256 of the price for the bid\r",
          "_tokenAddress": "- address of the ERC721 token\r",
          "_tokenId": "- uint256 of the token id\r"
        }
      },
      "removeExpiredBids(address[],uint256[],address[])": {
        "details": "Remove expired bids\r",
        "params": {
          "_bidders": "- address[] of the bidders\r",
          "_tokenAddresses": "- address[] of the ERC721 tokens\r",
          "_tokenIds": "- uint256[] of the token ids\r"
        }
      },
      "setOwnerCutPerMillion(uint256)": {
        "details": "Sets the share cut for the owner of the contract that's\r charged to the seller on a successful sale\r",
        "params": {
          "_ownerCutPerMillion": "- Share amount, from 0 to 999,999\r"
        }
      }
    }
  },
  "userdoc": {
    "methods": {
      "getBidByBidder(address,uint256,address)": {
        "notice": "If the bidder has not a valid bid, the transaction will be reverted.\r"
      },
      "onERC721Received(address,address,uint256,bytes)": {
        "notice": "The ERC721 smart contract calls this function on the recipient\r after a `safetransfer`. This function MAY throw to revert and reject the\r transfer. Return of other than the magic value MUST result in the\r transaction being reverted.\r Note:\r Contract address is always the message sender.\r This method should be seen as 'acceptBid'.\r It validates that the bid id matches an active bid for the bid token.\r"
      },
      "placeBid(address,uint256,uint256,uint256)": {
        "notice": "Tokens can have multiple bids by different users.\r Users can have only one bid per token.\r If the user places a bid and has an active bid for that token,\r the older one will be replaced with the new one.\r This function would be called by the bidder : Transfer msg.value to contract address\r"
      }
    }
  }
}