{
  "contractName": "Marketplace",
  "abi": [
    {
      "constant": true,
      "inputs": [],
      "name": "ownerCutPerMillion",
      "outputs": [
        {
          "name": "",
          "type": "uint256"
        }
      ],
      "payable": false,
      "stateMutability": "view",
      "type": "function"
    },
    {
      "constant": true,
      "inputs": [],
      "name": "publicationFeeInWei",
      "outputs": [
        {
          "name": "",
          "type": "uint256"
        }
      ],
      "payable": false,
      "stateMutability": "view",
      "type": "function"
    },
    {
      "constant": true,
      "inputs": [
        {
          "name": "",
          "type": "address"
        },
        {
          "name": "",
          "type": "uint256"
        }
      ],
      "name": "orderByAssetId",
      "outputs": [
        {
          "name": "id",
          "type": "bytes32"
        },
        {
          "name": "seller",
          "type": "address"
        },
        {
          "name": "nftAddress",
          "type": "address"
        },
        {
          "name": "price",
          "type": "uint256"
        },
        {
          "name": "expiresAt",
          "type": "uint256"
        }
      ],
      "payable": false,
      "stateMutability": "view",
      "type": "function"
    },
    {
      "inputs": [
        {
          "name": "_owner",
          "type": "address"
        },
        {
          "name": "_ownerCutPerMillion",
          "type": "uint256"
        }
      ],
      "payable": false,
      "stateMutability": "nonpayable",
      "type": "constructor"
    },
    {
      "anonymous": false,
      "inputs": [
        {
          "indexed": false,
          "name": "id",
          "type": "bytes32"
        },
        {
          "indexed": true,
          "name": "assetId",
          "type": "uint256"
        },
        {
          "indexed": true,
          "name": "seller",
          "type": "address"
        },
        {
          "indexed": false,
          "name": "nftAddress",
          "type": "address"
        },
        {
          "indexed": false,
          "name": "priceInWei",
          "type": "uint256"
        },
        {
          "indexed": false,
          "name": "expiresAt",
          "type": "uint256"
        }
      ],
      "name": "OrderCreated",
      "type": "event"
    },
    {
      "anonymous": false,
      "inputs": [
        {
          "indexed": false,
          "name": "id",
          "type": "bytes32"
        },
        {
          "indexed": true,
          "name": "assetId",
          "type": "uint256"
        },
        {
          "indexed": true,
          "name": "seller",
          "type": "address"
        },
        {
          "indexed": false,
          "name": "nftAddress",
          "type": "address"
        },
        {
          "indexed": false,
          "name": "totalPrice",
          "type": "uint256"
        },
        {
          "indexed": true,
          "name": "buyer",
          "type": "address"
        }
      ],
      "name": "OrderSuccessful",
      "type": "event"
    },
    {
      "anonymous": false,
      "inputs": [
        {
          "indexed": false,
          "name": "id",
          "type": "bytes32"
        },
        {
          "indexed": true,
          "name": "assetId",
          "type": "uint256"
        },
        {
          "indexed": true,
          "name": "seller",
          "type": "address"
        },
        {
          "indexed": false,
          "name": "nftAddress",
          "type": "address"
        }
      ],
      "name": "OrderCancelled",
      "type": "event"
    },
    {
      "anonymous": false,
      "inputs": [
        {
          "indexed": false,
          "name": "publicationFee",
          "type": "uint256"
        }
      ],
      "name": "ChangedPublicationFee",
      "type": "event"
    },
    {
      "anonymous": false,
      "inputs": [
        {
          "indexed": false,
          "name": "ownerCutPerMillion",
          "type": "uint256"
        }
      ],
      "name": "ChangedOwnerCutPerMillion",
      "type": "event"
    },
    {
      "constant": false,
      "inputs": [
        {
          "name": "_publicationFee",
          "type": "uint256"
        }
      ],
      "name": "setPublicationFee",
      "outputs": [],
      "payable": false,
      "stateMutability": "nonpayable",
      "type": "function"
    },
    {
      "constant": false,
      "inputs": [
        {
          "name": "_ownerCutPerMillion",
          "type": "uint256"
        }
      ],
      "name": "setOwnerCutPerMillion",
      "outputs": [],
      "payable": false,
      "stateMutability": "nonpayable",
      "type": "function"
    },
    {
      "constant": false,
      "inputs": [
        {
          "name": "nftAddress",
          "type": "address"
        },
        {
          "name": "assetId",
          "type": "uint256"
        },
        {
          "name": "priceInWei",
          "type": "uint256"
        },
        {
          "name": "expiresAt",
          "type": "uint256"
        }
      ],
      "name": "createOrder",
      "outputs": [],
      "payable": true,
      "stateMutability": "payable",
      "type": "function"
    },
    {
      "constant": false,
      "inputs": [
        {
          "name": "nftAddress",
          "type": "address"
        },
        {
          "name": "assetId",
          "type": "uint256"
        }
      ],
      "name": "cancelOrder",
      "outputs": [],
      "payable": false,
      "stateMutability": "nonpayable",
      "type": "function"
    },
    {
      "constant": true,
      "inputs": [
        {
          "name": "price",
          "type": "uint256"
        }
      ],
      "name": "getSaleShareAmount",
      "outputs": [
        {
          "name": "",
          "type": "uint256"
        }
      ],
      "payable": false,
      "stateMutability": "view",
      "type": "function"
    },
    {
      "constant": false,
      "inputs": [
        {
          "name": "nftAddress",
          "type": "address"
        },
        {
          "name": "assetId",
          "type": "uint256"
        },
        {
          "name": "price",
          "type": "uint256"
        }
      ],
      "name": "executeOrder",
      "outputs": [],
      "payable": true,
      "stateMutability": "payable",
      "type": "function"
    }
  ],
  "bytecode": "0x608060405234801561001057600080fd5b50604051604080612127833981018060405281019080805190602001909291908051906020019092919050505081600360006101000a81548173ffffffffffffffffffffffffffffffffffffffff021916908373ffffffffffffffffffffffffffffffffffffffff1602179055506100968161009d640100000000026401000000009004565b50506101dc565b3373ffffffffffffffffffffffffffffffffffffffff16600360009054906101000a900473ffffffffffffffffffffffffffffffffffffffff1673ffffffffffffffffffffffffffffffffffffffff161415156100f957600080fd5b620f424081101515610199576040517f08c379a000000000000000000000000000000000000000000000000000000000815260040180806020018281038252602d8152602001807f546865206f776e6572206375742073686f756c64206265206265747765656e2081526020017f3020616e64203939392c3939390000000000000000000000000000000000000081525060400191505060405180910390fd5b806001819055507ffa406a120a9e7f2b332bfb7a43d3bf1c3f079262202907a6b69c94b2821a02c66001546040518082815260200191505060405180910390a150565b611f3c806101eb6000396000f300608060405260043610610099576000357c0100000000000000000000000000000000000000000000000000000000900463ffffffff16806319dad16d1461009e5780631fd77b85146100cb5780636a2061371461010c5780636f652e1a14610159578063a01f79d4146101ad578063ae4f1198146101d8578063ae7b033314610203578063af8996f11461024d578063e61f38511461027a575b600080fd5b3480156100aa57600080fd5b506100c960048036038101908080359060200190929190505050610357565b005b3480156100d757600080fd5b506100f660048036038101908080359060200190929190505050610496565b6040518082815260200191505060405180910390f35b34801561011857600080fd5b50610157600480360381019080803573ffffffffffffffffffffffffffffffffffffffff169060200190929190803590602001909291905050506104de565b005b6101ab600480360381019080803573ffffffffffffffffffffffffffffffffffffffff169060200190929190803590602001909291908035906020019092919080359060200190929190505050610903565b005b3480156101b957600080fd5b506101c26112e0565b6040518082815260200191505060405180910390f35b3480156101e457600080fd5b506101ed6112e6565b6040518082815260200191505060405180910390f35b61024b600480360381019080803573ffffffffffffffffffffffffffffffffffffffff16906020019092919080359060200190929190803590602001909291905050506112ec565b005b34801561025957600080fd5b5061027860048036038101908080359060200190929190505050611cf4565b005b34801561028657600080fd5b506102c5600480360381019080803573ffffffffffffffffffffffffffffffffffffffff16906020019092919080359060200190929190505050611d93565b6040518086600019166000191681526020018573ffffffffffffffffffffffffffffffffffffffff1673ffffffffffffffffffffffffffffffffffffffff1681526020018473ffffffffffffffffffffffffffffffffffffffff1673ffffffffffffffffffffffffffffffffffffffff1681526020018381526020018281526020019550505050505060405180910390f35b3373ffffffffffffffffffffffffffffffffffffffff16600360009054906101000a900473ffffffffffffffffffffffffffffffffffffffff1673ffffffffffffffffffffffffffffffffffffffff161415156103b357600080fd5b620f424081101515610453576040517f08c379a000000000000000000000000000000000000000000000000000000000815260040180806020018281038252602d8152602001807f546865206f776e6572206375742073686f756c64206265206265747765656e2081526020017f3020616e64203939392c3939390000000000000000000000000000000000000081525060400191505060405180910390fd5b806001819055507ffa406a120a9e7f2b332bfb7a43d3bf1c3f079262202907a6b69c94b2821a02c66001546040518082815260200191505060405180910390a150565b60008060009050600060015411156104d5576104d2620f42406104c460015486611e1690919063ffffffff16565b611e5190919063ffffffff16565b90505b80915050919050565b60006104e8611eb1565b60008060003394506000808873ffffffffffffffffffffffffffffffffffffffff1673ffffffffffffffffffffffffffffffffffffffff168152602001908152602001600020600087815260200190815260200160002060a060405190810160405290816000820154600019166000191681526020016001820160009054906101000a900473ffffffffffffffffffffffffffffffffffffffff1673ffffffffffffffffffffffffffffffffffffffff1673ffffffffffffffffffffffffffffffffffffffff1681526020016002820160009054906101000a900473ffffffffffffffffffffffffffffffffffffffff1673ffffffffffffffffffffffffffffffffffffffff1673ffffffffffffffffffffffffffffffffffffffff1681526020016003820154815260200160048201548152505093506000600102846000015160001916141515156106a3576040517f08c379a00000000000000000000000000000000000000000000000000000000081526004018080602001828103825260138152602001807f4173736574206e6f74207075626c69736865640000000000000000000000000081525060200191505060405180910390fd5b8473ffffffffffffffffffffffffffffffffffffffff16846020015173ffffffffffffffffffffffffffffffffffffffff16148061072e5750600360009054906101000a900473ffffffffffffffffffffffffffffffffffffffff1673ffffffffffffffffffffffffffffffffffffffff168573ffffffffffffffffffffffffffffffffffffffff16145b15156107a2576040517f08c379a00000000000000000000000000000000000000000000000000000000081526004018080602001828103825260118152602001807f556e617574686f72697a6564207573657200000000000000000000000000000081525060200191505060405180910390fd5b8360000151925083602001519150836040015190506000808873ffffffffffffffffffffffffffffffffffffffff1673ffffffffffffffffffffffffffffffffffffffff16815260200190815260200160002060008781526020019081526020016000206000808201600090556001820160006101000a81549073ffffffffffffffffffffffffffffffffffffffff02191690556002820160006101000a81549073ffffffffffffffffffffffffffffffffffffffff02191690556003820160009055600482016000905550508173ffffffffffffffffffffffffffffffffffffffff16867f0325426328de5b91ae4ad8462ad4076de4bcaf4551e81556185cacde5a425c6b85846040518083600019166000191681526020018273ffffffffffffffffffffffffffffffffffffffff1673ffffffffffffffffffffffffffffffffffffffff1681526020019250505060405180910390a350505050505050565b60008060006109278773ffffffffffffffffffffffffffffffffffffffff16611e67565b15156109c1576040517f08c379a00000000000000000000000000000000000000000000000000000000081526004018080602001828103825260248152602001807f546865204e465420416464726573732073686f756c64206265206120636f6e7481526020017f726163740000000000000000000000000000000000000000000000000000000081525060400191505060405180910390fd5b3392508673ffffffffffffffffffffffffffffffffffffffff16636352211e876040518263ffffffff167c010000000000000000000000000000000000000000000000000000000002815260040180828152602001915050602060405180830381600087803b158015610a3357600080fd5b505af1158015610a47573d6000803e3d6000fd5b505050506040513d6020811015610a5d57600080fd5b810190808051906020019092919050505091508173ffffffffffffffffffffffffffffffffffffffff168373ffffffffffffffffffffffffffffffffffffffff16141515610b13576040517f08c379a00000000000000000000000000000000000000000000000000000000081526004018080602001828103825260208152602001807f4f6e6c7920746865206f776e65722063616e20637265617465206f726465727381525060200191505060405180910390fd5b600085111515610b8b576040517f08c379a000000000000000000000000000000000000000000000000000000000815260040180806020018281038252601d8152602001807f50726963652073686f756c6420626520626967676572207468616e203000000081525060200191505060405180910390fd5b3073ffffffffffffffffffffffffffffffffffffffff168773ffffffffffffffffffffffffffffffffffffffff1663081812fc886040518263ffffffff167c010000000000000000000000000000000000000000000000000000000002815260040180828152602001915050602060405180830381600087803b158015610c1157600080fd5b505af1158015610c25573d6000803e3d6000fd5b505050506040513d6020811015610c3b57600080fd5b810190808051906020019092919050505073ffffffffffffffffffffffffffffffffffffffff161480610d7457508673ffffffffffffffffffffffffffffffffffffffff1663e985e9c583306040518363ffffffff167c0100000000000000000000000000000000000000000000000000000000028152600401808373ffffffffffffffffffffffffffffffffffffffff1673ffffffffffffffffffffffffffffffffffffffff1681526020018273ffffffffffffffffffffffffffffffffffffffff1673ffffffffffffffffffffffffffffffffffffffff16815260200192505050602060405180830381600087803b158015610d3857600080fd5b505af1158015610d4c573d6000803e3d6000fd5b505050506040513d6020811015610d6257600080fd5b81019080805190602001909291905050505b1515610e0e576040517f08c379a00000000000000000000000000000000000000000000000000000000081526004018080602001828103825260328152602001807f54686520636f6e7472616374206973206e6f7420617574686f72697a6564207481526020017f6f206d616e61676520746865206173736574000000000000000000000000000081525060400191505060405180910390fd5b610e22603c42611e7a90919063ffffffff16565b84111515610ebe576040517f08c379a00000000000000000000000000000000000000000000000000000000081526004018080602001828103825260368152602001807f5075626c69636174696f6e2073686f756c64206265206d6f7265207468616e2081526020017f31206d696e75746520696e20746865206675747572650000000000000000000081525060400191505060405180910390fd5b4282878988604051602001808681526020018573ffffffffffffffffffffffffffffffffffffffff1673ffffffffffffffffffffffffffffffffffffffff166c010000000000000000000000000281526014018481526020018373ffffffffffffffffffffffffffffffffffffffff1673ffffffffffffffffffffffffffffffffffffffff166c01000000000000000000000000028152601401828152602001955050505050506040516020818303038152906040526040518082805190602001908083835b602083101515610fa95780518252602082019150602081019050602083039250610f84565b6001836020036101000a0380198251168184511680821785525050505050509050019150506040518091039020905060a060405190810160405280826000191681526020018373ffffffffffffffffffffffffffffffffffffffff1681526020018873ffffffffffffffffffffffffffffffffffffffff168152602001868152602001858152506000808973ffffffffffffffffffffffffffffffffffffffff1673ffffffffffffffffffffffffffffffffffffffff16815260200190815260200160002060008881526020019081526020016000206000820151816000019060001916905560208201518160010160006101000a81548173ffffffffffffffffffffffffffffffffffffffff021916908373ffffffffffffffffffffffffffffffffffffffff16021790555060408201518160020160006101000a81548173ffffffffffffffffffffffffffffffffffffffff021916908373ffffffffffffffffffffffffffffffffffffffff1602179055506060820151816003015560808201518160040155905050346002541415156111d3576040517f08c379a000000000000000000000000000000000000000000000000000000000815260040180806020018281038252603f8152602001807f5472616e73666572696e6720746865207075626c69636174696f6e206665652081526020017f746f20746865204d61726b6574706c616365206f776e6572206661696c65640081525060400191505060405180910390fd5b600360009054906101000a900473ffffffffffffffffffffffffffffffffffffffff1673ffffffffffffffffffffffffffffffffffffffff166108fc349081150290604051600060405180830381858888f1935050505015801561123b573d6000803e3d6000fd5b508173ffffffffffffffffffffffffffffffffffffffff16867f84c66c3f7ba4b390e20e8e8233e2a516f3ce34a72749e4f12bd010dfba238039838a89896040518085600019166000191681526020018473ffffffffffffffffffffffffffffffffffffffff1673ffffffffffffffffffffffffffffffffffffffff16815260200183815260200182815260200194505050505060405180910390a350505050505050565b60015481565b60025481565b60006112f6611eb1565b6000806113188773ffffffffffffffffffffffffffffffffffffffff16611e67565b15156113b2576040517f08c379a00000000000000000000000000000000000000000000000000000000081526004018080602001828103825260248152602001807f546865204e465420416464726573732073686f756c64206265206120636f6e7481526020017f726163740000000000000000000000000000000000000000000000000000000081525060400191505060405180910390fd5b3393506000808873ffffffffffffffffffffffffffffffffffffffff1673ffffffffffffffffffffffffffffffffffffffff168152602001908152602001600020600087815260200190815260200160002060a060405190810160405290816000820154600019166000191681526020016001820160009054906101000a900473ffffffffffffffffffffffffffffffffffffffff1673ffffffffffffffffffffffffffffffffffffffff1673ffffffffffffffffffffffffffffffffffffffff1681526020016002820160009054906101000a900473ffffffffffffffffffffffffffffffffffffffff1673ffffffffffffffffffffffffffffffffffffffff1673ffffffffffffffffffffffffffffffffffffffff168152602001600382015481526020016004820154815250509250600060010283600001516000191614151515611568576040517f08c379a00000000000000000000000000000000000000000000000000000000081526004018080602001828103825260138152602001807f4173736574206e6f74207075626c69736865640000000000000000000000000081525060200191505060405180910390fd5b82602001519150600073ffffffffffffffffffffffffffffffffffffffff168273ffffffffffffffffffffffffffffffffffffffff1614151515611614576040517f08c379a000000000000000000000000000000000000000000000000000000000815260040180806020018281038252600f8152602001807f496e76616c69642061646472657373000000000000000000000000000000000081525060200191505060405180910390fd5b8373ffffffffffffffffffffffffffffffffffffffff168273ffffffffffffffffffffffffffffffffffffffff16141515156116b8576040517f08c379a00000000000000000000000000000000000000000000000000000000081526004018080602001828103825260118152602001807f556e617574686f72697a6564207573657200000000000000000000000000000081525060200191505060405180910390fd5b848360600151141515611733576040517f08c379a00000000000000000000000000000000000000000000000000000000081526004018080602001828103825260188152602001807f546865207072696365206973206e6f7420636f7272656374000000000000000081525060200191505060405180910390fd5b8260800151421015156117ae576040517f08c379a00000000000000000000000000000000000000000000000000000000081526004018080602001828103825260118152602001807f546865206f72646572206578706972656400000000000000000000000000000081525060200191505060405180910390fd5b8673ffffffffffffffffffffffffffffffffffffffff16636352211e876040518263ffffffff167c010000000000000000000000000000000000000000000000000000000002815260040180828152602001915050602060405180830381600087803b15801561181d57600080fd5b505af1158015611831573d6000803e3d6000fd5b505050506040513d602081101561184757600080fd5b810190808051906020019092919050505073ffffffffffffffffffffffffffffffffffffffff168273ffffffffffffffffffffffffffffffffffffffff16141515611920576040517f08c379a00000000000000000000000000000000000000000000000000000000081526004018080602001828103825260218152602001807f5468652073656c6c6572206973206e6f206c6f6e67657220746865206f776e6581526020017f720000000000000000000000000000000000000000000000000000000000000081525060400191505060405180910390fd5b60006001541115611a3a573461193586610496565b1415156119d0576040517f08c379a00000000000000000000000000000000000000000000000000000000081526004018080602001828103825260248152602001807f5468652073616c6520736861726520616d6f756e74206973206e6f7420636f7281526020017f726563740000000000000000000000000000000000000000000000000000000081525060400191505060405180910390fd5b600360009054906101000a900473ffffffffffffffffffffffffffffffffffffffff1673ffffffffffffffffffffffffffffffffffffffff166108fc349081150290604051600060405180830381858888f19350505050158015611a38573d6000803e3d6000fd5b505b826000015190506000808873ffffffffffffffffffffffffffffffffffffffff1673ffffffffffffffffffffffffffffffffffffffff16815260200190815260200160002060008781526020019081526020016000206000808201600090556001820160006101000a81549073ffffffffffffffffffffffffffffffffffffffff02191690556002820160006101000a81549073ffffffffffffffffffffffffffffffffffffffff02191690556003820160009055600482016000905550508173ffffffffffffffffffffffffffffffffffffffff166108fc611b263488611e9890919063ffffffff16565b9081150290604051600060405180830381858888f19350505050158015611b51573d6000803e3d6000fd5b508673ffffffffffffffffffffffffffffffffffffffff166342842e0e8386896040518463ffffffff167c0100000000000000000000000000000000000000000000000000000000028152600401808473ffffffffffffffffffffffffffffffffffffffff1673ffffffffffffffffffffffffffffffffffffffff1681526020018373ffffffffffffffffffffffffffffffffffffffff1673ffffffffffffffffffffffffffffffffffffffff1681526020018281526020019350505050600060405180830381600087803b158015611c2957600080fd5b505af1158015611c3d573d6000803e3d6000fd5b505050508373ffffffffffffffffffffffffffffffffffffffff168273ffffffffffffffffffffffffffffffffffffffff16877f695ec315e8a642a74d450a4505eeea53df699b47a7378c7d752e97d5b16eb9bb848b8a6040518084600019166000191681526020018373ffffffffffffffffffffffffffffffffffffffff1673ffffffffffffffffffffffffffffffffffffffff168152602001828152602001935050505060405180910390a450505050505050565b3373ffffffffffffffffffffffffffffffffffffffff16600360009054906101000a900473ffffffffffffffffffffffffffffffffffffffff1673ffffffffffffffffffffffffffffffffffffffff16141515611d5057600080fd5b806002819055507fe7fa8737293f41b5dfa0d5c3e552860a06275bed7015581b083c7be7003308ba6002546040518082815260200191505060405180910390a150565b6000602052816000526040600020602052806000526040600020600091509150508060000154908060010160009054906101000a900473ffffffffffffffffffffffffffffffffffffffff16908060020160009054906101000a900473ffffffffffffffffffffffffffffffffffffffff16908060030154908060040154905085565b6000806000841415611e2b5760009150611e4a565b8284029050828482811515611e3c57fe5b04141515611e4657fe5b8091505b5092915050565b60008183811515611e5e57fe5b04905092915050565b600080823b905060008111915050919050565b6000808284019050838110151515611e8e57fe5b8091505092915050565b6000828211151515611ea657fe5b818303905092915050565b60a06040519081016040528060008019168152602001600073ffffffffffffffffffffffffffffffffffffffff168152602001600073ffffffffffffffffffffffffffffffffffffffff168152602001600081526020016000815250905600a165627a7a72305820a8f7c75202cc8dbe3b05482faed6a3a3e91d7e76ad5cb6c66d6f241ba40878490029",
  "source": "pragma solidity ^0.4.24;\r\n\r\nimport \"./NFT.sol\";\r\n\r\nimport \"./SafeMath.sol\";\r\nimport \"./AddressUtils.sol\";\r\n\r\nimport \"./MarketPlaceStorage.sol\";\r\n\r\ncontract Marketplace is MarketPlaceStorage{\r\n    using SafeMath for uint256;\r\n    using AddressUtils for address;\r\n    address MarketPlaceOwner;\r\n    \r\n    constructor ( address _owner, uint256 _ownerCutPerMillion) public {\r\n        \r\n        MarketPlaceOwner = _owner;\r\n        \r\n        // Fee init\r\n        setOwnerCutPerMillion(_ownerCutPerMillion);\r\n    \r\n    }\r\n    \r\n    /**\r\n    * @dev Guarantees msg.sender is owner of the Marketplace\r\n    */\r\n    modifier isOwner() {\r\n        require(MarketPlaceOwner == msg.sender);\r\n        _;\r\n    }\r\n  \r\n    /**\r\n    * @dev Sets the publication fee that's charged to users to publish items\r\n    * @param _publicationFee - Fee amount in wei this contract charges to publish an item\r\n    */\r\n    function setPublicationFee(uint256 _publicationFee) external isOwner {\r\n        publicationFeeInWei = _publicationFee;\r\n        emit ChangedPublicationFee(publicationFeeInWei);\r\n    }   \r\n    \r\n    /**\r\n    * @dev Sets the share cut for the owner of the contract that's\r\n    *  charged to the seller on a successful sale\r\n    * @param _ownerCutPerMillion - Share amount, from 0 to 999,999\r\n    */\r\n    function setOwnerCutPerMillion(uint256 _ownerCutPerMillion) public isOwner {\r\n        require(_ownerCutPerMillion < 1000000, \"The owner cut should be between 0 and 999,999\");\r\n\r\n        ownerCutPerMillion = _ownerCutPerMillion;\r\n        emit ChangedOwnerCutPerMillion(ownerCutPerMillion);\r\n    }\r\n    \r\n    /**\r\n    * @dev Creates a new order\r\n    * @param nftAddress - Non fungible registry address\r\n    * @param assetId - ID of the published NFT\r\n    * @param priceInWei - Price in Wei for the supported coin\r\n    * @param expiresAt - Duration of the order (in hours)\r\n    */\r\n    // msg.value - Publication Fee In Wei\r\n    \r\n    function createOrder(\r\n        address nftAddress,\r\n        uint256 assetId,\r\n        uint256 priceInWei,\r\n        uint256 expiresAt\r\n    )\r\n    public payable\r\n    {\r\n        require(nftAddress.isContract(), \"The NFT Address should be a contract\");\r\n        \r\n        address sender = msg.sender;\r\n        address assetOwner = NFT(nftAddress).ownerOf(assetId);\r\n\r\n        require(sender == assetOwner, \"Only the owner can create orders\");\r\n        require(priceInWei > 0, \"Price should be bigger than 0\");\r\n        require(\r\n          NFT(nftAddress).getApproved(assetId) == address(this) || NFT(nftAddress).isApprovedForAll(assetOwner, address(this)),\r\n          \"The contract is not authorized to manage the asset\"\r\n        );\r\n        require(expiresAt > block.timestamp.add(1 minutes), \"Publication should be more than 1 minute in the future\");\r\n\r\n        bytes32 orderId = keccak256(\r\n            abi.encodePacked(\r\n                block.timestamp,\r\n                assetOwner,\r\n                assetId,\r\n                nftAddress,\r\n                priceInWei\r\n            )\r\n        );\r\n\r\n        orderByAssetId[nftAddress][assetId] = Order({\r\n            id: orderId,\r\n            seller: address(uint160(assetOwner)),\r\n            nftAddress: nftAddress,\r\n            price: priceInWei,\r\n            expiresAt: expiresAt\r\n        });\r\n\r\n\r\n        require(publicationFeeInWei == msg.value, \"Transfering the publication fee to the Marketplace owner failed\");\r\n        MarketPlaceOwner.transfer(msg.value);\r\n        \r\n        emit OrderCreated(\r\n            orderId,\r\n            assetId,\r\n            assetOwner,\r\n            nftAddress,\r\n            priceInWei,\r\n            expiresAt\r\n        );\r\n    }\r\n  \r\n    /**\r\n    * @dev Cancel an already published order\r\n    *  can only be canceled by seller or the contract owner\r\n    * @param nftAddress - Address of the NFT registry\r\n    * @param assetId - ID of the published NFT\r\n    */\r\n    function cancelOrder(address nftAddress, uint256 assetId) public {\r\n        address sender = msg.sender;\r\n        Order memory order = orderByAssetId[nftAddress][assetId];\r\n    \r\n        require(order.id != 0, \"Asset not published\");\r\n        require(order.seller == sender || sender == MarketPlaceOwner, \"Unauthorized user\");\r\n    \r\n        bytes32 orderId = order.id;\r\n        address orderSeller = order.seller;\r\n        address orderNftAddress = order.nftAddress;\r\n        delete orderByAssetId[nftAddress][assetId];\r\n    \r\n        emit OrderCancelled(\r\n          orderId,\r\n          assetId,\r\n          orderSeller,\r\n          orderNftAddress\r\n        );\r\n    }\r\n  \r\n    /**\r\n    * @dev Returns the sale share amount for given nft price\r\n    * @param price - Order price\r\n    */ \r\n    function getSaleShareAmount(uint256 price) public view returns(uint) {\r\n        uint saleShareAmount = 0;\r\n        if (ownerCutPerMillion > 0) {\r\n            // Calculate sale share\r\n            saleShareAmount = price.mul(ownerCutPerMillion).div(1000000);\r\n        }\r\n        return saleShareAmount;\r\n    }\r\n    \r\n    /**\r\n    * @dev Executes the sale for a published NFT\r\n    * @param nftAddress - Address of the NFT registry\r\n    * @param assetId - ID of the published NFT\r\n    * @param price - Order price\r\n    */\r\n    //msg.value - saleShareAmount\r\n    function executeOrder(\r\n        address nftAddress,\r\n        uint256 assetId,\r\n        uint256 price\r\n    )\r\n       public payable\r\n      {\r\n          \r\n        require(nftAddress.isContract(), \"The NFT Address should be a contract\");  \r\n    \r\n        address sender = msg.sender;\r\n    \r\n        Order memory order = orderByAssetId[nftAddress][assetId];\r\n    \r\n        require(order.id != 0, \"Asset not published\");\r\n    \r\n        address seller = order.seller;\r\n    \r\n        require(seller != address(0), \"Invalid address\");\r\n        require(seller != sender, \"Unauthorized user\");\r\n        require(order.price == price, \"The price is not correct\");\r\n        require(block.timestamp < order.expiresAt, \"The order expired\");\r\n        require(seller == NFT(nftAddress).ownerOf(assetId), \"The seller is no longer the owner\");\r\n        if(ownerCutPerMillion > 0){\r\n            require(getSaleShareAmount(price) == msg.value, \"The sale share amount is not correct\");        \r\n            MarketPlaceOwner.transfer(msg.value);\r\n        }\r\n        \r\n        bytes32 orderId = order.id;\r\n        delete orderByAssetId[nftAddress][assetId];\r\n        \r\n        // Transfer sale amount to seller\r\n        seller.transfer(price.sub(msg.value));\r\n    \r\n        //Transfer asset owner\r\n        NFT(nftAddress).safeTransferFrom(\r\n          seller,\r\n          sender,\r\n          assetId\r\n        );\r\n        \r\n    \r\n        emit OrderSuccessful(\r\n          orderId,\r\n          assetId,\r\n          seller,\r\n          nftAddress,\r\n          price,\r\n          sender\r\n        );\r\n    \r\n      }  \r\n}\r\n",
  "sourcePath": "D:/SoluLab/XinFin/Matic Nft Subgraph/contracts/MarketPlace.sol",
  "compiler": {
    "name": "solc",
    "version": "0.4.24+commit.e67f0147.Emscripten.clang"
  },
  "schemaVersion": "3.4.1",
  "updatedAt": "2021-08-07T05:10:45.061Z",
  "networkType": "ethereum",
  "devdoc": {
    "methods": {
      "cancelOrder(address,uint256)": {
        "details": "Cancel an already published order\r can only be canceled by seller or the contract owner\r",
        "params": {
          "assetId": "- ID of the published NFT\r",
          "nftAddress": "- Address of the NFT registry\r"
        }
      },
      "createOrder(address,uint256,uint256,uint256)": {
        "details": "Creates a new order\r",
        "params": {
          "assetId": "- ID of the published NFT\r",
          "expiresAt": "- Duration of the order (in hours)\r",
          "nftAddress": "- Non fungible registry address\r",
          "priceInWei": "- Price in Wei for the supported coin\r"
        }
      },
      "executeOrder(address,uint256,uint256)": {
        "details": "Executes the sale for a published NFT\r",
        "params": {
          "assetId": "- ID of the published NFT\r",
          "nftAddress": "- Address of the NFT registry\r",
          "price": "- Order price\r"
        }
      },
      "getSaleShareAmount(uint256)": {
        "details": "Returns the sale share amount for given nft price\r",
        "params": {
          "price": "- Order price\r"
        }
      },
      "setOwnerCutPerMillion(uint256)": {
        "details": "Sets the share cut for the owner of the contract that's\r charged to the seller on a successful sale\r",
        "params": {
          "_ownerCutPerMillion": "- Share amount, from 0 to 999,999\r"
        }
      },
      "setPublicationFee(uint256)": {
        "details": "Sets the publication fee that's charged to users to publish items\r",
        "params": {
          "_publicationFee": "- Fee amount in wei this contract charges to publish an item\r"
        }
      }
    }
  },
  "userdoc": {
    "methods": {}
  }
}