{
  "contractName": "MarketPlaceStorage",
  "abi": [
    {
      "constant": true,
      "inputs": [],
      "name": "ownerCutPerMillion",
      "outputs": [
        {
          "name": "",
          "type": "uint256"
        }
      ],
      "payable": false,
      "stateMutability": "view",
      "type": "function"
    },
    {
      "constant": true,
      "inputs": [],
      "name": "publicationFeeInWei",
      "outputs": [
        {
          "name": "",
          "type": "uint256"
        }
      ],
      "payable": false,
      "stateMutability": "view",
      "type": "function"
    },
    {
      "constant": true,
      "inputs": [
        {
          "name": "",
          "type": "address"
        },
        {
          "name": "",
          "type": "uint256"
        }
      ],
      "name": "orderByAssetId",
      "outputs": [
        {
          "name": "id",
          "type": "bytes32"
        },
        {
          "name": "seller",
          "type": "address"
        },
        {
          "name": "nftAddress",
          "type": "address"
        },
        {
          "name": "price",
          "type": "uint256"
        },
        {
          "name": "expiresAt",
          "type": "uint256"
        }
      ],
      "payable": false,
      "stateMutability": "view",
      "type": "function"
    },
    {
      "anonymous": false,
      "inputs": [
        {
          "indexed": false,
          "name": "id",
          "type": "bytes32"
        },
        {
          "indexed": true,
          "name": "assetId",
          "type": "uint256"
        },
        {
          "indexed": true,
          "name": "seller",
          "type": "address"
        },
        {
          "indexed": false,
          "name": "nftAddress",
          "type": "address"
        },
        {
          "indexed": false,
          "name": "priceInWei",
          "type": "uint256"
        },
        {
          "indexed": false,
          "name": "expiresAt",
          "type": "uint256"
        }
      ],
      "name": "OrderCreated",
      "type": "event"
    },
    {
      "anonymous": false,
      "inputs": [
        {
          "indexed": false,
          "name": "id",
          "type": "bytes32"
        },
        {
          "indexed": true,
          "name": "assetId",
          "type": "uint256"
        },
        {
          "indexed": true,
          "name": "seller",
          "type": "address"
        },
        {
          "indexed": false,
          "name": "nftAddress",
          "type": "address"
        },
        {
          "indexed": false,
          "name": "totalPrice",
          "type": "uint256"
        },
        {
          "indexed": true,
          "name": "buyer",
          "type": "address"
        }
      ],
      "name": "OrderSuccessful",
      "type": "event"
    },
    {
      "anonymous": false,
      "inputs": [
        {
          "indexed": false,
          "name": "id",
          "type": "bytes32"
        },
        {
          "indexed": true,
          "name": "assetId",
          "type": "uint256"
        },
        {
          "indexed": true,
          "name": "seller",
          "type": "address"
        },
        {
          "indexed": false,
          "name": "nftAddress",
          "type": "address"
        }
      ],
      "name": "OrderCancelled",
      "type": "event"
    },
    {
      "anonymous": false,
      "inputs": [
        {
          "indexed": false,
          "name": "publicationFee",
          "type": "uint256"
        }
      ],
      "name": "ChangedPublicationFee",
      "type": "event"
    },
    {
      "anonymous": false,
      "inputs": [
        {
          "indexed": false,
          "name": "ownerCutPerMillion",
          "type": "uint256"
        }
      ],
      "name": "ChangedOwnerCutPerMillion",
      "type": "event"
    }
  ],
  "bytecode": "0x608060405234801561001057600080fd5b5061024a806100206000396000f300608060405260043610610057576000357c0100000000000000000000000000000000000000000000000000000000900463ffffffff168063a01f79d41461005c578063ae4f119814610087578063e61f3851146100b2575b600080fd5b34801561006857600080fd5b5061007161018f565b6040518082815260200191505060405180910390f35b34801561009357600080fd5b5061009c610195565b6040518082815260200191505060405180910390f35b3480156100be57600080fd5b506100fd600480360381019080803573ffffffffffffffffffffffffffffffffffffffff1690602001909291908035906020019092919050505061019b565b6040518086600019166000191681526020018573ffffffffffffffffffffffffffffffffffffffff1673ffffffffffffffffffffffffffffffffffffffff1681526020018473ffffffffffffffffffffffffffffffffffffffff1673ffffffffffffffffffffffffffffffffffffffff1681526020018381526020018281526020019550505050505060405180910390f35b60015481565b60025481565b6000602052816000526040600020602052806000526040600020600091509150508060000154908060010160009054906101000a900473ffffffffffffffffffffffffffffffffffffffff16908060020160009054906101000a900473ffffffffffffffffffffffffffffffffffffffff169080600301549080600401549050855600a165627a7a72305820418d0361e48b603887fbc7d29b55b1836e33c5619de80e99cd083fedbf11a40e0029",
  "source": "pragma solidity ^0.4.24;\r\n\r\n/**\r\n * @title Interface for contracts conforming to ERC-721\r\n */\r\n\r\ncontract MarketPlaceStorage {\r\n\r\n  struct Order {\r\n    // Order ID\r\n    bytes32 id;\r\n    // Owner of the NFT\r\n    address seller;\r\n    // NFT registry address\r\n    address nftAddress;\r\n    // Price (in wei) for the published item\r\n    uint256 price;\r\n    // Time when this sale ends\r\n    uint256 expiresAt;\r\n  }\r\n\r\n  // From NFT registry assetId to Order (to avoid asset collision)\r\n  mapping (address => mapping(uint256 => Order)) public orderByAssetId;\r\n\r\n  uint256 public ownerCutPerMillion;\r\n  uint256 public publicationFeeInWei;\r\n\r\n  // EVENTS\r\n  event OrderCreated(\r\n    bytes32 id,\r\n    uint256 indexed assetId,\r\n    address indexed seller,\r\n    address nftAddress,\r\n    uint256 priceInWei,\r\n    uint256 expiresAt\r\n  );\r\n  event OrderSuccessful(\r\n    bytes32 id,\r\n    uint256 indexed assetId,\r\n    address indexed seller,\r\n    address nftAddress,\r\n    uint256 totalPrice,\r\n    address indexed buyer\r\n  );\r\n  event OrderCancelled(\r\n    bytes32 id,\r\n    uint256 indexed assetId,\r\n    address indexed seller,\r\n    address nftAddress\r\n  );\r\n\r\n  event ChangedPublicationFee(uint256 publicationFee);\r\n  event ChangedOwnerCutPerMillion(uint256 ownerCutPerMillion);\r\n}",
  "sourcePath": "D:/SoluLab/XinFin/Matic Nft Subgraph/contracts/MarketPlaceStorage.sol",
  "compiler": {
    "name": "solc",
    "version": "0.4.24+commit.e67f0147.Emscripten.clang"
  },
  "schemaVersion": "3.4.1",
  "updatedAt": "2021-08-03T06:00:24.437Z",
  "devdoc": {
    "methods": {},
    "title": "Interface for contracts conforming to ERC-721\r"
  },
  "userdoc": {
    "methods": {}
  }
}