{
  "contractName": "NFT",
  "abi": [
    {
      "constant": true,
      "inputs": [],
      "name": "name",
      "outputs": [
        {
          "name": "",
          "type": "string"
        }
      ],
      "payable": false,
      "stateMutability": "view",
      "type": "function"
    },
    {
      "constant": true,
      "inputs": [
        {
          "name": "_tokenId",
          "type": "uint256"
        }
      ],
      "name": "getApproved",
      "outputs": [
        {
          "name": "",
          "type": "address"
        }
      ],
      "payable": false,
      "stateMutability": "view",
      "type": "function"
    },
    {
      "constant": false,
      "inputs": [
        {
          "name": "_to",
          "type": "address"
        },
        {
          "name": "_tokenId",
          "type": "uint256"
        }
      ],
      "name": "approve",
      "outputs": [],
      "payable": false,
      "stateMutability": "nonpayable",
      "type": "function"
    },
    {
      "constant": true,
      "inputs": [],
      "name": "totalSupply",
      "outputs": [
        {
          "name": "",
          "type": "uint256"
        }
      ],
      "payable": false,
      "stateMutability": "view",
      "type": "function"
    },
    {
      "constant": false,
      "inputs": [
        {
          "name": "_from",
          "type": "address"
        },
        {
          "name": "_to",
          "type": "address"
        },
        {
          "name": "_tokenId",
          "type": "uint256"
        }
      ],
      "name": "transferFrom",
      "outputs": [],
      "payable": false,
      "stateMutability": "nonpayable",
      "type": "function"
    },
    {
      "constant": true,
      "inputs": [
        {
          "name": "_owner",
          "type": "address"
        },
        {
          "name": "_index",
          "type": "uint256"
        }
      ],
      "name": "tokenOfOwnerByIndex",
      "outputs": [
        {
          "name": "",
          "type": "uint256"
        }
      ],
      "payable": false,
      "stateMutability": "view",
      "type": "function"
    },
    {
      "constant": false,
      "inputs": [
        {
          "name": "_from",
          "type": "address"
        },
        {
          "name": "_to",
          "type": "address"
        },
        {
          "name": "_tokenId",
          "type": "uint256"
        }
      ],
      "name": "safeTransferFrom",
      "outputs": [],
      "payable": false,
      "stateMutability": "nonpayable",
      "type": "function"
    },
    {
      "constant": true,
      "inputs": [
        {
          "name": "_tokenId",
          "type": "uint256"
        }
      ],
      "name": "exists",
      "outputs": [
        {
          "name": "",
          "type": "bool"
        }
      ],
      "payable": false,
      "stateMutability": "view",
      "type": "function"
    },
    {
      "constant": true,
      "inputs": [
        {
          "name": "_index",
          "type": "uint256"
        }
      ],
      "name": "tokenByIndex",
      "outputs": [
        {
          "name": "",
          "type": "uint256"
        }
      ],
      "payable": false,
      "stateMutability": "view",
      "type": "function"
    },
    {
      "constant": true,
      "inputs": [
        {
          "name": "_tokenId",
          "type": "uint256"
        }
      ],
      "name": "ownerOf",
      "outputs": [
        {
          "name": "",
          "type": "address"
        }
      ],
      "payable": false,
      "stateMutability": "view",
      "type": "function"
    },
    {
      "constant": true,
      "inputs": [
        {
          "name": "_owner",
          "type": "address"
        }
      ],
      "name": "balanceOf",
      "outputs": [
        {
          "name": "",
          "type": "uint256"
        }
      ],
      "payable": false,
      "stateMutability": "view",
      "type": "function"
    },
    {
      "constant": true,
      "inputs": [],
      "name": "symbol",
      "outputs": [
        {
          "name": "",
          "type": "string"
        }
      ],
      "payable": false,
      "stateMutability": "view",
      "type": "function"
    },
    {
      "constant": false,
      "inputs": [
        {
          "name": "_to",
          "type": "address"
        },
        {
          "name": "_approved",
          "type": "bool"
        }
      ],
      "name": "setApprovalForAll",
      "outputs": [],
      "payable": false,
      "stateMutability": "nonpayable",
      "type": "function"
    },
    {
      "constant": false,
      "inputs": [
        {
          "name": "_from",
          "type": "address"
        },
        {
          "name": "_to",
          "type": "address"
        },
        {
          "name": "_tokenId",
          "type": "uint256"
        },
        {
          "name": "_data",
          "type": "bytes"
        }
      ],
      "name": "safeTransferFrom",
      "outputs": [],
      "payable": false,
      "stateMutability": "nonpayable",
      "type": "function"
    },
    {
      "constant": true,
      "inputs": [
        {
          "name": "_tokenId",
          "type": "uint256"
        }
      ],
      "name": "tokenURI",
      "outputs": [
        {
          "name": "",
          "type": "string"
        }
      ],
      "payable": false,
      "stateMutability": "view",
      "type": "function"
    },
    {
      "constant": true,
      "inputs": [],
      "name": "tokenCounter",
      "outputs": [
        {
          "name": "",
          "type": "uint256"
        }
      ],
      "payable": false,
      "stateMutability": "view",
      "type": "function"
    },
    {
      "constant": true,
      "inputs": [
        {
          "name": "_owner",
          "type": "address"
        },
        {
          "name": "_operator",
          "type": "address"
        }
      ],
      "name": "isApprovedForAll",
      "outputs": [
        {
          "name": "",
          "type": "bool"
        }
      ],
      "payable": false,
      "stateMutability": "view",
      "type": "function"
    },
    {
      "inputs": [
        {
          "name": "_name",
          "type": "string"
        },
        {
          "name": "_symbol",
          "type": "string"
        }
      ],
      "payable": false,
      "stateMutability": "nonpayable",
      "type": "constructor"
    },
    {
      "anonymous": false,
      "inputs": [
        {
          "indexed": false,
          "name": "_by",
          "type": "address"
        },
        {
          "indexed": false,
          "name": "_tokenId",
          "type": "uint256"
        }
      ],
      "name": "NFTRegistered",
      "type": "event"
    },
    {
      "anonymous": false,
      "inputs": [
        {
          "indexed": true,
          "name": "_from",
          "type": "address"
        },
        {
          "indexed": true,
          "name": "_to",
          "type": "address"
        },
        {
          "indexed": false,
          "name": "_tokenId",
          "type": "uint256"
        }
      ],
      "name": "Transfer",
      "type": "event"
    },
    {
      "anonymous": false,
      "inputs": [
        {
          "indexed": true,
          "name": "_owner",
          "type": "address"
        },
        {
          "indexed": true,
          "name": "_approved",
          "type": "address"
        },
        {
          "indexed": false,
          "name": "_tokenId",
          "type": "uint256"
        }
      ],
      "name": "Approval",
      "type": "event"
    },
    {
      "anonymous": false,
      "inputs": [
        {
          "indexed": true,
          "name": "_owner",
          "type": "address"
        },
        {
          "indexed": true,
          "name": "_operator",
          "type": "address"
        },
        {
          "indexed": false,
          "name": "_approved",
          "type": "bool"
        }
      ],
      "name": "ApprovalForAll",
      "type": "event"
    },
    {
      "constant": false,
      "inputs": [
        {
          "name": "_tokenId",
          "type": "uint256"
        },
        {
          "name": "_uri",
          "type": "string"
        }
      ],
      "name": "registerNFT",
      "outputs": [],
      "payable": false,
      "stateMutability": "nonpayable",
      "type": "function"
    },
    {
      "constant": false,
      "inputs": [
        {
          "name": "_tokenId",
          "type": "uint256"
        },
        {
          "name": "_uri",
          "type": "string"
        }
      ],
      "name": "addNFTMetadata",
      "outputs": [
        {
          "name": "",
          "type": "bool"
        }
      ],
      "payable": false,
      "stateMutability": "nonpayable",
      "type": "function"
    }
  ],
  "bytecode": "0x60806040523480156200001157600080fd5b5060405162002066380380620020668339810180604052810190808051820192919060200180518201929190505050818181600490805190602001906200005a92919062000086565b5080600590805190602001906200007392919062000086565b5050506000600b81905550505062000135565b828054600181600116156101000203166002900490600052602060002090601f016020900481019282601f10620000c957805160ff1916838001178555620000fa565b82800160010185558215620000fa579182015b82811115620000f9578251825591602001919060010190620000dc565b5b5090506200010991906200010d565b5090565b6200013291905b808211156200012e57600081600090555060010162000114565b5090565b90565b611f2180620001456000396000f300608060405260043610610107576000357c0100000000000000000000000000000000000000000000000000000000900463ffffffff16806306fdde031461010c578063081812fc1461019c578063095ea7b3146102095780630d3986a01461025657806318160ddd146102e157806323b872dd1461030c5780632f745c591461037957806342842e0e146103da5780634f558e79146104475780634f6ccce71461048c5780636352211e146104cd57806370a082311461053a57806395d89b4114610591578063a22cb46514610621578063b88d4fde14610670578063c87b56dd14610723578063d082e381146107c9578063e985e9c5146107f4578063fc414d0e1461086f575b600080fd5b34801561011857600080fd5b506101216108e2565b6040518080602001828103825283818151815260200191508051906020019080838360005b83811015610161578082015181840152602081019050610146565b50505050905090810190601f16801561018e5780820380516001836020036101000a031916815260200191505b509250505060405180910390f35b3480156101a857600080fd5b506101c760048036038101908080359060200190929190505050610984565b604051808273ffffffffffffffffffffffffffffffffffffffff1673ffffffffffffffffffffffffffffffffffffffff16815260200191505060405180910390f35b34801561021557600080fd5b50610254600480360381019080803573ffffffffffffffffffffffffffffffffffffffff169060200190929190803590602001909291905050506109c1565b005b34801561026257600080fd5b506102c760048036038101908080359060200190929190803590602001908201803590602001908080601f0160208091040260200160405190810160405280939291908181526020018383808284378201915050505050509192919290505050610b87565b604051808215151515815260200191505060405180910390f35b3480156102ed57600080fd5b506102f6610b9d565b6040518082815260200191505060405180910390f35b34801561031857600080fd5b50610377600480360381019080803573ffffffffffffffffffffffffffffffffffffffff169060200190929190803573ffffffffffffffffffffffffffffffffffffffff16906020019092919080359060200190929190505050610baa565b005b34801561038557600080fd5b506103c4600480360381019080803573ffffffffffffffffffffffffffffffffffffffff16906020019092919080359060200190929190505050610cc1565b6040518082815260200191505060405180910390f35b3480156103e657600080fd5b50610445600480360381019080803573ffffffffffffffffffffffffffffffffffffffff169060200190929190803573ffffffffffffffffffffffffffffffffffffffff16906020019092919080359060200190929190505050610d38565b005b34801561045357600080fd5b5061047260048036038101908080359060200190929190505050610d70565b604051808215151515815260200191505060405180910390f35b34801561049857600080fd5b506104b760048036038101908080359060200190929190505050610de1565b6040518082815260200191505060405180910390f35b3480156104d957600080fd5b506104f860048036038101908080359060200190929190505050610e19565b604051808273ffffffffffffffffffffffffffffffffffffffff1673ffffffffffffffffffffffffffffffffffffffff16815260200191505060405180910390f35b34801561054657600080fd5b5061057b600480360381019080803573ffffffffffffffffffffffffffffffffffffffff169060200190929190505050610e96565b6040518082815260200191505060405180910390f35b34801561059d57600080fd5b506105a6610f1a565b6040518080602001828103825283818151815260200191508051906020019080838360005b838110156105e65780820151818401526020810190506105cb565b50505050905090810190601f1680156106135780820380516001836020036101000a031916815260200191505b509250505060405180910390f35b34801561062d57600080fd5b5061066e600480360381019080803573ffffffffffffffffffffffffffffffffffffffff169060200190929190803515159060200190929190505050610fbc565b005b34801561067c57600080fd5b50610721600480360381019080803573ffffffffffffffffffffffffffffffffffffffff169060200190929190803573ffffffffffffffffffffffffffffffffffffffff16906020019092919080359060200190929190803590602001908201803590602001908080601f01602080910402602001604051908101604052809392919081815260200183838082843782019150505050505091929192905050506110f8565b005b34801561072f57600080fd5b5061074e60048036038101908080359060200190929190505050611137565b6040518080602001828103825283818151815260200191508051906020019080838360005b8381101561078e578082015181840152602081019050610773565b50505050905090810190601f1680156107bb5780820380516001836020036101000a031916815260200191505b509250505060405180910390f35b3480156107d557600080fd5b506107de611200565b6040518082815260200191505060405180910390f35b34801561080057600080fd5b50610855600480360381019080803573ffffffffffffffffffffffffffffffffffffffff169060200190929190803573ffffffffffffffffffffffffffffffffffffffff169060200190929190505050611206565b604051808215151515815260200191505060405180910390f35b34801561087b57600080fd5b506108e060048036038101908080359060200190929190803590602001908201803590602001908080601f016020809104026020016040519081016040528093929190818152602001838380828437820191505050505050919291929050505061129a565b005b606060048054600181600116156101000203166002900480601f01602080910402602001604051908101604052809291908181526020018280546001816001161561010002031660029004801561097a5780601f1061094f5761010080835404028352916020019161097a565b820191906000526020600020905b81548152906001019060200180831161095d57829003601f168201915b5050505050905090565b60006001600083815260200190815260200160002060009054906101000a900473ffffffffffffffffffffffffffffffffffffffff169050919050565b60006109cc82610e19565b90508073ffffffffffffffffffffffffffffffffffffffff168373ffffffffffffffffffffffffffffffffffffffff1614151515610a0957600080fd5b8073ffffffffffffffffffffffffffffffffffffffff163373ffffffffffffffffffffffffffffffffffffffff161480610a495750610a488133611206565b5b1515610a5457600080fd5b600073ffffffffffffffffffffffffffffffffffffffff16610a7583610984565b73ffffffffffffffffffffffffffffffffffffffff16141580610ac55750600073ffffffffffffffffffffffffffffffffffffffff168373ffffffffffffffffffffffffffffffffffffffff1614155b15610b8257826001600084815260200190815260200160002060006101000a81548173ffffffffffffffffffffffffffffffffffffffff021916908373ffffffffffffffffffffffffffffffffffffffff1602179055508273ffffffffffffffffffffffffffffffffffffffff168173ffffffffffffffffffffffffffffffffffffffff167f8c5be1e5ebec7d5bd14f71427d1e84f3dd0314c0f7b2291e5b200ac8c7c3b925846040518082815260200191505060405180910390a35b505050565b6000610b938383611332565b6001905092915050565b6000600880549050905090565b80610bb53382611372565b1515610bc057600080fd5b600073ffffffffffffffffffffffffffffffffffffffff168473ffffffffffffffffffffffffffffffffffffffff1614151515610bfc57600080fd5b600073ffffffffffffffffffffffffffffffffffffffff168373ffffffffffffffffffffffffffffffffffffffff1614151515610c3857600080fd5b610c428483611407565b610c4c8483611570565b610c568383611788565b8273ffffffffffffffffffffffffffffffffffffffff168473ffffffffffffffffffffffffffffffffffffffff167fddf252ad1be2c89b69c2b068fc378daa952ba7f163c4a11628f55a4df523b3ef846040518082815260200191505060405180910390a350505050565b6000610ccc83610e96565b82101515610cd957600080fd5b600660008473ffffffffffffffffffffffffffffffffffffffff1673ffffffffffffffffffffffffffffffffffffffff16815260200190815260200160002082815481101515610d2557fe5b9060005260206000200154905092915050565b80610d433382611372565b1515610d4e57600080fd5b610d6a84848460206040519081016040528060008152506110f8565b50505050565b60008060008084815260200190815260200160002060009054906101000a900473ffffffffffffffffffffffffffffffffffffffff169050600073ffffffffffffffffffffffffffffffffffffffff168173ffffffffffffffffffffffffffffffffffffffff161415915050919050565b6000610deb610b9d565b82101515610df857600080fd5b600882815481101515610e0757fe5b90600052602060002001549050919050565b60008060008084815260200190815260200160002060009054906101000a900473ffffffffffffffffffffffffffffffffffffffff169050600073ffffffffffffffffffffffffffffffffffffffff168173ffffffffffffffffffffffffffffffffffffffff1614151515610e8d57600080fd5b80915050919050565b60008073ffffffffffffffffffffffffffffffffffffffff168273ffffffffffffffffffffffffffffffffffffffff1614151515610ed357600080fd5b600260008373ffffffffffffffffffffffffffffffffffffffff1673ffffffffffffffffffffffffffffffffffffffff168152602001908152602001600020549050919050565b606060058054600181600116156101000203166002900480601f016020809104026020016040519081016040528092919081815260200182805460018160011615610100020316600290048015610fb25780601f10610f8757610100808354040283529160200191610fb2565b820191906000526020600020905b815481529060010190602001808311610f9557829003601f168201915b5050505050905090565b3373ffffffffffffffffffffffffffffffffffffffff168273ffffffffffffffffffffffffffffffffffffffff1614151515610ff757600080fd5b80600360003373ffffffffffffffffffffffffffffffffffffffff1673ffffffffffffffffffffffffffffffffffffffff16815260200190815260200160002060008473ffffffffffffffffffffffffffffffffffffffff1673ffffffffffffffffffffffffffffffffffffffff16815260200190815260200160002060006101000a81548160ff0219169083151502179055508173ffffffffffffffffffffffffffffffffffffffff163373ffffffffffffffffffffffffffffffffffffffff167f17307eab39ab6107e8899845ad3d59bd9653f200f220920489ca2b5937696c3183604051808215151515815260200191505060405180910390a35050565b816111033382611372565b151561110e57600080fd5b611119858585610baa565b6111258585858561185f565b151561113057600080fd5b5050505050565b606061114282610d70565b151561114d57600080fd5b600a60008381526020019081526020016000208054600181600116156101000203166002900480601f0160208091040260200160405190810160405280929190818152602001828054600181600116156101000203166002900480156111f45780601f106111c9576101008083540402835291602001916111f4565b820191906000526020600020905b8154815290600101906020018083116111d757829003601f168201915b50505050509050919050565b600b5481565b6000600360008473ffffffffffffffffffffffffffffffffffffffff1673ffffffffffffffffffffffffffffffffffffffff16815260200190815260200160002060008373ffffffffffffffffffffffffffffffffffffffff1673ffffffffffffffffffffffffffffffffffffffff16815260200190815260200160002060009054906101000a900460ff16905092915050565b6000600b5490506112ab3382611a4d565b6112b58183610b87565b506001600b5401600b819055507f372fac516583945ba52554f7f43c94793d1faff5317a4ab4a7fbff0f11aa586f3384604051808373ffffffffffffffffffffffffffffffffffffffff1673ffffffffffffffffffffffffffffffffffffffff1681526020018281526020019250505060405180910390a1505050565b61133b82610d70565b151561134657600080fd5b80600a6000848152602001908152602001600020908051906020019061136d929190611e24565b505050565b60008061137e83610e19565b90508073ffffffffffffffffffffffffffffffffffffffff168473ffffffffffffffffffffffffffffffffffffffff1614806113ed57508373ffffffffffffffffffffffffffffffffffffffff166113d584610984565b73ffffffffffffffffffffffffffffffffffffffff16145b806113fe57506113fd8185611206565b5b91505092915050565b8173ffffffffffffffffffffffffffffffffffffffff1661142782610e19565b73ffffffffffffffffffffffffffffffffffffffff1614151561144957600080fd5b600073ffffffffffffffffffffffffffffffffffffffff166001600083815260200190815260200160002060009054906101000a900473ffffffffffffffffffffffffffffffffffffffff1673ffffffffffffffffffffffffffffffffffffffff1614151561156c5760006001600083815260200190815260200160002060006101000a81548173ffffffffffffffffffffffffffffffffffffffff021916908373ffffffffffffffffffffffffffffffffffffffff160217905550600073ffffffffffffffffffffffffffffffffffffffff168273ffffffffffffffffffffffffffffffffffffffff167f8c5be1e5ebec7d5bd14f71427d1e84f3dd0314c0f7b2291e5b200ac8c7c3b925836040518082815260200191505060405180910390a35b5050565b600080600061157f8585611aa4565b600760008581526020019081526020016000205492506115eb6001600660008873ffffffffffffffffffffffffffffffffffffffff1673ffffffffffffffffffffffffffffffffffffffff16815260200190815260200160002080549050611bd290919063ffffffff16565b9150600660008673ffffffffffffffffffffffffffffffffffffffff1673ffffffffffffffffffffffffffffffffffffffff1681526020019081526020016000208281548110151561163957fe5b9060005260206000200154905080600660008773ffffffffffffffffffffffffffffffffffffffff1673ffffffffffffffffffffffffffffffffffffffff1681526020019081526020016000208481548110151561169357fe5b90600052602060002001819055506000600660008773ffffffffffffffffffffffffffffffffffffffff1673ffffffffffffffffffffffffffffffffffffffff168152602001908152602001600020838154811015156116ef57fe5b9060005260206000200181905550600660008673ffffffffffffffffffffffffffffffffffffffff1673ffffffffffffffffffffffffffffffffffffffff16815260200190815260200160002080548091906001900361174f9190611ea4565b50600060076000868152602001908152602001600020819055508260076000838152602001908152602001600020819055505050505050565b60006117948383611beb565b600660008473ffffffffffffffffffffffffffffffffffffffff1673ffffffffffffffffffffffffffffffffffffffff168152602001908152602001600020805490509050600660008473ffffffffffffffffffffffffffffffffffffffff1673ffffffffffffffffffffffffffffffffffffffff168152602001908152602001600020829080600181540180825580915050906001820390600052602060002001600090919290919091505550806007600084815260200190815260200160002081905550505050565b6000806118818573ffffffffffffffffffffffffffffffffffffffff16611d43565b15156118905760019150611a44565b8473ffffffffffffffffffffffffffffffffffffffff1663f0b9e5ba8786866040518463ffffffff167c0100000000000000000000000000000000000000000000000000000000028152600401808473ffffffffffffffffffffffffffffffffffffffff1673ffffffffffffffffffffffffffffffffffffffff16815260200183815260200180602001828103825283818151815260200191508051906020019080838360005b83811015611952578082015181840152602081019050611937565b50505050905090810190601f16801561197f5780820380516001836020036101000a031916815260200191505b50945050505050602060405180830381600087803b1580156119a057600080fd5b505af11580156119b4573d6000803e3d6000fd5b505050506040513d60208110156119ca57600080fd5b8101908080519060200190929190505050905063f0b9e5ba7c0100000000000000000000000000000000000000000000000000000000027bffffffffffffffffffffffffffffffffffffffffffffffffffffffff1916817bffffffffffffffffffffffffffffffffffffffffffffffffffffffff19161491505b50949350505050565b611a578282611d56565b600880549050600960008381526020019081526020016000208190555060088190806001815401808255809150509060018203906000526020600020016000909192909190915055505050565b8173ffffffffffffffffffffffffffffffffffffffff16611ac482610e19565b73ffffffffffffffffffffffffffffffffffffffff16141515611ae657600080fd5b611b396001600260008573ffffffffffffffffffffffffffffffffffffffff1673ffffffffffffffffffffffffffffffffffffffff16815260200190815260200160002054611bd290919063ffffffff16565b600260008473ffffffffffffffffffffffffffffffffffffffff1673ffffffffffffffffffffffffffffffffffffffff16815260200190815260200160002081905550600080600083815260200190815260200160002060006101000a81548173ffffffffffffffffffffffffffffffffffffffff021916908373ffffffffffffffffffffffffffffffffffffffff1602179055505050565b6000828211151515611be057fe5b818303905092915050565b600073ffffffffffffffffffffffffffffffffffffffff1660008083815260200190815260200160002060009054906101000a900473ffffffffffffffffffffffffffffffffffffffff1673ffffffffffffffffffffffffffffffffffffffff16141515611c5857600080fd5b8160008083815260200190815260200160002060006101000a81548173ffffffffffffffffffffffffffffffffffffffff021916908373ffffffffffffffffffffffffffffffffffffffff160217905550611cfc6001600260008573ffffffffffffffffffffffffffffffffffffffff1673ffffffffffffffffffffffffffffffffffffffff16815260200190815260200160002054611e0690919063ffffffff16565b600260008473ffffffffffffffffffffffffffffffffffffffff1673ffffffffffffffffffffffffffffffffffffffff168152602001908152602001600020819055505050565b600080823b905060008111915050919050565b600073ffffffffffffffffffffffffffffffffffffffff168273ffffffffffffffffffffffffffffffffffffffff1614151515611d9257600080fd5b611d9c8282611788565b8173ffffffffffffffffffffffffffffffffffffffff16600073ffffffffffffffffffffffffffffffffffffffff167fddf252ad1be2c89b69c2b068fc378daa952ba7f163c4a11628f55a4df523b3ef836040518082815260200191505060405180910390a35050565b6000808284019050838110151515611e1a57fe5b8091505092915050565b828054600181600116156101000203166002900490600052602060002090601f016020900481019282601f10611e6557805160ff1916838001178555611e93565b82800160010185558215611e93579182015b82811115611e92578251825591602001919060010190611e77565b5b509050611ea09190611ed0565b5090565b815481835581811115611ecb57818360005260206000209182019101611eca9190611ed0565b5b505050565b611ef291905b80821115611eee576000816000905550600101611ed6565b5090565b905600a165627a7a7230582025212ac89c2486a3f7408efbacfab33fac82e91fc85513b02b0bfabee33411240029",
  "source": "pragma solidity ^0.4.24;\r\n\r\nimport \"./ERC721Token.sol\";\r\n\r\n/**\r\n * @title Repository of ERC721 NFTs\r\n * This contract contains the list of nfts registered by users.\r\n * This contract is used to mint and add tokens (NFT) \r\n * to the repository.\r\n */\r\n \r\ncontract NFT is ERC721Token {\r\n    \r\n    uint256 public tokenCounter;\r\n\r\n    /**\r\n    * @dev Created a NFTRepository with a name and symbol\r\n    * @param _name string represents the name of the repository\r\n    * @param _symbol string represents the symbol of the repository\r\n    */\r\n    constructor(string memory _name, string memory _symbol) public ERC721Token(_name, _symbol) {\r\n             tokenCounter = 0;\r\n    }\r\n    \r\n    /**\r\n    * @dev Public function to register a new NFT\r\n    * @dev Call the ERC721Token minter\r\n    * @param _tokenId uint256 represents a specific NFT\r\n    * @param _uri string containing metadata/uri\r\n    */\r\n    function registerNFT(uint256 _tokenId, string memory _uri) public {\r\n        uint256 tokenId = tokenCounter;\r\n        _mint(msg.sender, tokenId);\r\n        addNFTMetadata(tokenId, _uri);\r\n        tokenCounter = tokenCounter + 1;\r\n        emit NFTRegistered(msg.sender, _tokenId);\r\n    }\r\n\r\n    /**\r\n    * @dev Public function to add metadata to a NFT\r\n    * @param _tokenId represents a specific NFT\r\n    * @param _uri text which describes the characteristics of a given NFT\r\n    * @return whether the NFT metadata was added to the repository\r\n    */\r\n    function addNFTMetadata(uint256 _tokenId, string memory _uri) public returns(bool){\r\n        _setTokenURI(_tokenId, _uri);\r\n        return true;\r\n    }\r\n\r\n    /**\r\n    * @dev Event is triggered if NFT/token is registered\r\n    * @param _by address of the registrar\r\n    * @param _tokenId uint256 represents a specific NFT\r\n    */\r\n    event NFTRegistered(address _by, uint256 _tokenId);\r\n\r\n}",
  "sourcePath": "D:/SoluLab/XinFin/Matic Nft Subgraph/contracts/NFT.sol",
  "compiler": {
    "name": "solc",
    "version": "0.4.24+commit.e67f0147.Emscripten.clang"
  },
  "schemaVersion": "3.4.1",
  "updatedAt": "2021-08-07T05:10:44.976Z",
  "networkType": "ethereum",
  "devdoc": {
    "methods": {
      "addNFTMetadata(uint256,string)": {
        "details": "Public function to add metadata to a NFT\r",
        "params": {
          "_tokenId": "represents a specific NFT\r",
          "_uri": "text which describes the characteristics of a given NFT\r"
        },
        "return": "whether the NFT metadata was added to the repository\r"
      },
      "approve(address,uint256)": {
        "details": "Approves another address to transfer the given token ID\rThe zero address indicates there is no approved address.\rThere can only be one approved address per token at a given time.\rCan only be called by the token owner or an approved operator.\r",
        "params": {
          "_to": "address to be approved for the given token ID\r",
          "_tokenId": "uint256 ID of the token to be approved\r"
        }
      },
      "balanceOf(address)": {
        "details": "Gets the balance of the specified address\r",
        "params": {
          "_owner": "address to query the balance of\r"
        },
        "return": "uint256 representing the amount owned by the passed address\r"
      },
      "exists(uint256)": {
        "details": "Returns whether the specified token exists\r",
        "params": {
          "_tokenId": "uint256 ID of the token to query the existance of\r"
        },
        "return": "whether the token exists\r"
      },
      "getApproved(uint256)": {
        "details": "Gets the approved address for a token ID, or zero if no address set\r",
        "params": {
          "_tokenId": "uint256 ID of the token to query the approval of\r"
        },
        "return": "address currently approved for a the given token ID\r"
      },
      "isApprovedForAll(address,address)": {
        "details": "Tells whether an operator is approved by a given owner\r",
        "params": {
          "_operator": "operator address which you want to query the approval of\r",
          "_owner": "owner address which you want to query the approval of\r"
        },
        "return": "bool whether the given operator is approved by the given owner\r"
      },
      "name()": {
        "details": "Gets the token name\r",
        "return": "string representing the token name\r"
      },
      "ownerOf(uint256)": {
        "details": "Gets the owner of the specified token ID\r",
        "params": {
          "_tokenId": "uint256 ID of the token to query the owner of\r"
        },
        "return": "owner address currently marked as the owner of the given token ID\r"
      },
      "registerNFT(uint256,string)": {
        "details": "Public function to register a new NFT\rCall the ERC721Token minter\r",
        "params": {
          "_tokenId": "uint256 represents a specific NFT\r",
          "_uri": "string containing metadata/uri\r"
        }
      },
      "safeTransferFrom(address,address,uint256)": {
        "details": "Safely transfers the ownership of a given token ID to another address\rIf the target address is a contract, it must implement `onERC721Received`,\r which is called upon a safe transfer, and return the magic value\r `bytes4(keccak256(\"onERC721Received(address,uint256,bytes)\"))`; otherwise,\r the transfer is reverted.\rRequires the msg sender to be the owner, approved, or operator\r",
        "params": {
          "_from": "current owner of the token\r",
          "_to": "address to receive the ownership of the given token ID\r",
          "_tokenId": "uint256 ID of the token to be transferred\r"
        }
      },
      "safeTransferFrom(address,address,uint256,bytes)": {
        "details": "Safely transfers the ownership of a given token ID to another address\rIf the target address is a contract, it must implement `onERC721Received`,\r which is called upon a safe transfer, and return the magic value\r `bytes4(keccak256(\"onERC721Received(address,uint256,bytes)\"))`; otherwise,\r the transfer is reverted.\rRequires the msg sender to be the owner, approved, or operator\r",
        "params": {
          "_data": "bytes data to send along with a safe transfer check\r",
          "_from": "current owner of the token\r",
          "_to": "address to receive the ownership of the given token ID\r",
          "_tokenId": "uint256 ID of the token to be transferred\r"
        }
      },
      "setApprovalForAll(address,bool)": {
        "details": "Sets or unsets the approval of a given operator\rAn operator is allowed to transfer all tokens of the sender on their behalf\r",
        "params": {
          "_approved": "representing the status of the approval to be set\r",
          "_to": "operator address to set the approval\r"
        }
      },
      "symbol()": {
        "details": "Gets the token symbol\r",
        "return": "string representing the token symbol\r"
      },
      "tokenByIndex(uint256)": {
        "details": "Gets the token ID at a given index of all the tokens in this contract\rReverts if the index is greater or equal to the total number of tokens\r",
        "params": {
          "_index": "uint256 representing the index to be accessed of the tokens list\r"
        },
        "return": "uint256 token ID at the given index of the tokens list\r"
      },
      "tokenOfOwnerByIndex(address,uint256)": {
        "details": "Gets the token ID at a given index of the tokens list of the requested owner\r",
        "params": {
          "_index": "uint256 representing the index to be accessed of the requested tokens list\r",
          "_owner": "address owning the tokens list to be accessed\r"
        },
        "return": "uint256 token ID at the given index of the tokens list owned by the requested address\r"
      },
      "tokenURI(uint256)": {
        "details": "Returns an URI for a given token ID\rThrows if the token ID does not exist. May return an empty string.\r",
        "params": {
          "_tokenId": "uint256 ID of the token to query\r"
        }
      },
      "totalSupply()": {
        "details": "Gets the total amount of tokens stored by the contract\r",
        "return": "uint256 representing the total amount of tokens\r"
      },
      "transferFrom(address,address,uint256)": {
        "details": "Transfers the ownership of a given token ID to another address\rUsage of this method is discouraged, use `safeTransferFrom` whenever possible\rRequires the msg sender to be the owner, approved, or operator\r",
        "params": {
          "_from": "current owner of the token\r",
          "_to": "address to receive the ownership of the given token ID\r",
          "_tokenId": "uint256 ID of the token to be transferred\r"
        }
      }
    },
    "title": "Repository of ERC721 NFTs\r This contract contains the list of nfts registered by users.\r This contract is used to mint and add tokens (NFT) \r to the repository.\r"
  },
  "userdoc": {
    "methods": {}
  }
}